:020000040800F2
:10000000B0430020590200085F300008F7250008BF
:100010005D3000089D0900089534000800000000CC
:100020000000000000000000000000009D0100082A
:10003000C50A000800000000F1010008C1320008F4
:1000400073020008730200087302000873020008BC
:100050007302000873020008C70A00087302000850
:1000600073020008CD0A000873020008730200083A
:10007000730200087302000873020008730200088C
:10008000730200087302000873020008730200087C
:10009000A109000873020008730200087302000837
:1000A00073020008C93300087302000873020008D5
:1000B000730200087302000873020008730200084C
:1000C00073020008F9250008730200087302000893
:1000D000730200087302000873020008730200082C
:1000E000730200087302000873020008730200081C
:1000F000730200087302000873020008730200080C
:1001000073020008730200087302000873020008FB
:1001100073020008730200087302000873020008EB
:1001200073020008730200087302000873020008DB
:1001300073020008730200087302000873020008CB
:1001400073020008730200087302000873020008BB
:1001500073020008730200087302000873020008AB
:10016000730200087302000873020008730200089B
:100170007302000873020008730200080000000008
:100180007302000873020008DFF80CD000F062FB75
:1001900000480047A53B0008B04300202B4B1968DE
:1001A0000868B0E8F04F80F30988BFF36F8F4FF015
:1001B000000080F3118870470000000006480068C6
:1001C000006880F3088862B661B6BFF34F8FBFF353
:1001D0006F8F00DF00BF00BF08ED00E0DFF80C000C
:1001E000016841F470010160704700BF88ED00E0D4
:1001F000EFF30980BFF36F8F144B1A681EF0100FD6
:1002000008BF20ED108A20E9F04F106008B44FF0CD
:10021000500080F31188BFF34F8FBFF36F8F04F04E
:1002200083F94FF0000080F3118808BC1968086852
:10023000B0E8F04F1EF0100F08BFB0EC108A80F34A
:100240000988BFF36F8F704700BF00BF74000020A4
:10025000EFF30580704700000648804706480047D6
:10026000FEE7FEE7FEE7FEE7FEE7FEE7FEE7FEE766
:10027000FEE7FEE775330008890100082DE9F05F0D
:100280000546002092469B46884606468146402405
:100290001BE0284641464746224600F00AFA5346EC
:1002A0005A46C01A914110D311461846224600F012
:1002B000F1F92D1A67EB01084F4622460120002173
:1002C00000F0E8F917EB00094E41201EA4F10104EB
:1002D000DFDC484631462A464346BDE8F09FD2B2AD
:1002E00001E000F8012B491EFBD270470022F6E71F
:1002F00010B513460A4604461946FFF7F0FF20469C
:1003000010BD2DE9FE4F804681EA0300C00F0C4668
:10031000009021F0004123F00045B8EB0200A94114
:1003200005D24046214690461C460B46024623F025
:100330000040104347D0270DC7F30A00C3F30A510A
:100340000290401A019040286BDAC3F3130040F486
:10035000801B0098924620B10023D2EB030A63EB86
:100360000B0B01985946C0F14002504600F092F93B
:1003700006460D4650465946019A00F0AAF910EB80
:1003800008006141002487EA115284EAE7731A43A6
:1003900040D0009A62B3019A012A4FEA075215DC55
:1003A000001B61EB02014FF0004202EA0752CDE967
:1003B0000042001C41F5801132462B4600F0AAF99C
:1003C00003B0BDE8F08F40462146F9E7001B61EB22
:1003D0000201001C41F5801300185B412018A2F5B2
:1003E000001747EB030140EAD570B6196D4111E0E3
:1003F0006D084FEA360645EAC0754FEA0752001B02
:1004000061EB0201001C41F5801149084FEA300000
:100410000019514132462B4603B0BDE8F04F00F0C1
:100420006AB90098012240000023D0EB020263EB7E
:10043000E073009821464FEAE074B8EB000061EBEE
:100440000401E9E783F000435BE781F0004158E7EE
:100450002DE9FE4F81EA030404F0004421F000413D
:1004600000944FF0000B23F0004350EA01045ED0EB
:1004700052EA03045BD0C3F30A54C1F30A552C4477
:10048000A4F2F3340194A0FB0254C1F3130141F42C
:100490008011C3F3130343F4801301FB024400FBF8
:1004A000034E840A970A44EA815447EA8357A4FB1F
:1004B000076802958D0A05FB07854FEA932C04FB1C
:1004C0000C542705029D4FEA065847EA1637B5EB4C
:1004D00008056EEB070C870E920E47EA811742EA79
:1004E0008312A7FB0201B6EB0B0164EB00042B0D9A
:1004F00043EA0C335E1844EB1C50DA465146E7FBE6
:100500000201C5F313044FEA0B3343EA14534FEAD5
:100510000432019C43EA0603A4F10C040294009CFB
:10052000CDE900B400F0F6F803B0BDE8F08F00208C
:100530000146F9E72DE9F04D81EA030404F0004B90
:1005400021F0004514464FF0000A23F0004150EA24
:10055000050220D054EA01021DD0C5F30A57024615
:10056000C5F31303C1F31300C1F30A5640F4801519
:1005700043F48013A7EB0608101BD64608F2FD389B
:1005800073EB050002D308F1010801E092185B410A
:10059000B8F1000F03DA00200146BDE8F08D00201D
:1005A0004FF48011064684460EE0171B73EB0507D7
:1005B00005D3121B63EB050306434CEA010C490803
:1005C0004FEA300092185B4150EA0107EDD152EA40
:1005D000030012D082EA040083EA0501084305D033
:1005E000101BAB4106D20122002306E000224FF08F
:1005F000004302E06FF0010253101AEB06004CEBCF
:10060000085110EB0A0041EB0B01BDE8F04D00F082
:1006100072B80EB5C10F80EAE0700844CA07002125
:1006200040F233438DE80E000A460B4600F072F8A4
:1006300003B000BD30B5041E71F1000404DB4FF0BF
:100640000044404264EB0101141E73F1000405DB19
:100650001C464FF00043524263EB04038B4208BF39
:10066000824230BD30B5041E71F1000404DB4FF04E
:100670000044404264EB0101141E73F1000405DBE9
:100680001C464FF00043524263EB0403994208BFFB
:10069000904230BD202A04DB203A00FA02F100200B
:1006A00070479140C2F1200320FA03F319439040B0
:1006B0007047202A04DB203A21FA02F0002170471B
:1006C00021FA02F3D040C2F12002914008431946BA
:1006D0007047202A06DBCB17203A41FA02F043EAA2
:1006E000E07306E041FA02F3D040C2F120029140EB
:1006F00008431946704710B5141E73F1000408DA58
:10070000401C41F1000192185B411A4301D120F0D5
:10071000010010BD2DE9F04D92469B4611B1B1FA92
:1007200081F202E0B0FA80F220329046FFF7B2FF89
:1007300004460F4640EA0A0041EA0B0153465A4676
:10074000084313D0114653EA010019D0C8F1400202
:100750005046FFF7AEFF05460E4650465946424604
:10076000FFF798FF084305D0012004E020463946F2
:10077000BDE8F08D0020054346EAE0762C43374380
:100780000A986305E40AA0EB08000022FD0A44EA87
:1007900047540A3002D500200146E9E70105101947
:1007A0006941DDE9084500196941BDE8F04DA2E75E
:1007B0002DE9F04D00231A461B1A8A4103DB002065
:1007C0000146BDE8F08DC1F30A52C1F3130141F4B3
:1007D00080154FF0000BD10702D100186D41521E59
:1007E0000027044640F2FF11384601EB620A3E46FC
:1007F0008046024600204FF48011FFF75AFFC219CD
:100800007141BB1846EB0100B4EB030C75EB000C17
:1008100004D3E41A65EB000517460E46241908F1C7
:1008200001006D4180463428E3DDF91946EB0600EE
:10083000091BA84103D24FF0FF32134601E000220A
:1008400013461BEB070046EB0A51BDE8F04DFFF7DE
:1008500052BF0000064C074D06E0E06840F001037F
:1008600094E8070098471034AC42F6D3FFF790FCA9
:10087000504A0008704A0008454910B54A6822F4F9
:1008800040324A604A6843681A434A6001684A68CD
:1008900022F480724A6001684A68036942EA0322CE
:1008A0004A6001684A6822F040724A6001684A68FA
:1008B00083681A434A6001688A6822F400628A6089
:1008C00001688A68C3681A438A60816A6FF070623F
:1008D000D14201688A6822F070628A6001688A6881
:1008E0000CD0836A1A438A6001688A6822F04052F9
:1008F0008A6001688A68C36A1A4301E022F04052A4
:100900008A6001688A6822F002028A6001688A6847
:10091000836942EA43028A60016A002901684A68E1
:100920000FD042F400624A6001684A6822F46042D3
:100930004A6001684A68174C436A04EB43331A4320
:1009400001E022F400624A600168CA6A22F470027F
:10095000CA620168CA6A838B0F4C04EB03531A43C3
:10096000CA6201688A6822F400728A6001688A6833
:10097000036B42EA43228A6001688A6822F480623B
:100980008A6001688A68406942EA8020886010BDF8
:100990000023014000E0FFFF0000F0FFFEE7000041
:1009A000014800F092BA0000B001002010B52DED12
:1009B000028B02F065FB1B4C94ED160B53EC102BD5
:1009C00051EC100BFFF744FD94ED120B41EC180BAA
:1009D00053EC102B51EC100BFFF73AFD53EC182B96
:1009E000FFF78FFC41EC100B02F0D2FFB0EE401A83
:1009F000F0EE601A94ED140B02F0D2FE9FED0A1B8C
:100A000051EC100B53EC112BFFF722FD9FED081B4F
:100A100053EC112BFFF78EFDBDEC028B41EC100B5C
:100A200010BD0000000000200000000000806640B3
:100A3000A7E8482EFF21094010B52DED028B02F0EA
:100A40001FFB1B4C94ED160B53EC102B51EC100BB1
:100A5000FFF7FEFC94ED140B41EC180B53EC102B3C
:100A600051EC100BFFF7F4FC53EC182BFFF749FC8B
:100A700041EC100B02F08CFFB0EE401AF0EE601A61
:100A800094ED120B02F08CFE9FED0A1B51EC100B43
:100A900053EC112BFFF7DCFC9FED081B53EC112BE3
:100AA000FFF748FDBDEC028B41EC100B10BD0000C0
:100AB000000000200000000000806640A7E8482EEB
:100AC000FF2109C07047012000F0E8BB082000F0BA
:100AD000E5BB704778B50024009490F83C20012ACB
:100AE00019D0012280F83C200A6807230568092AEA
:100AF00013D9EE680A3A02EB420293409E43EE603D
:100B00000B788A680A3B03EB43039A400368DD686D
:100B10002A43DA6010E0022078BD2E6902EB42021F
:100B200093409E432E610B788A6803EB43039A40FF
:100B300003681D692A431A614A681F23072A13D2D2
:100B400005686E6B521E02EB820293409E436E63F9
:100B50000B790A885B1E92B203EB83039A40036809
:100B60005D6B2A435A6327E005680D2A12D22E6B6B
:100B7000D21F02EB820293409E432E630B790A88B8
:100B8000DB1F92B203EB83039A4003681D6B2A4379
:100B90001A6311E0EE6A0D3A02EB820293409E4323
:100BA000EE620B790A880D3B92B203EB83039A4005
:100BB0000368DD6A2A43DA62164B0568144A9D42CF
:100BC00006D10D68122D03D1556845F48005556096
:100BD00005689D4218D10B68102B01D0112B13D141
:100BE000536843F400035360096810290CD10A4983
:100BF0000A4A0968B1FBF2F101EB8101490000E00A
:100C0000491E00910029FBD180F83C40002078BDAE
:100C100000230140002001406400002040420F00FA
:100C20000068C06C704770B504004FF0000503D039
:100C3000206C002610B107E0012070BD666484F8C6
:100C40003C60204600F01AF8206CC00610D4206CDE
:100C500020F4885040F0020020642046FFF70CFE8C
:100C60006664206C20F0020040F00100206400E087
:100C7000012584F83C60284670BD000070B586B040
:100C8000044614216846FFF731FB3249304E236891
:100C90000024304A143903252F48B34225D1136864
:100CA00043F480731360126802F4807205920A683C
:100CB00042F004020A600A6802F0040205920A681F
:100CC00042F001020A600968029401F001010591F5
:100CD0000121CDE90015694600F0ECFA0620CDE9C6
:100CE0000005694602941D4814E01D4EB34215D11B
:100CF000136843F400731360126802F400720592E3
:100D00000A6842F004020A60096801F004010591D2
:100D1000022117E000F0CEFA06B070BD114EB342CA
:100D2000FAD1136843F480631360126802F480629E
:100D300005920A6842F004020A60096801F00401A1
:100D400005910421CDE9001502946946E2E700000F
:100D500000200140443802400008024000000240E8
:100D600000210140002201402DE9F04104460068C5
:100D70000D4681684FF0000749050BD58068C00516
:100D800008D5206C40F02000206484F83C700120DD
:100D9000BDE8F08100F070FB06460FE0681C0DD046
:100DA00025B100F069FB801BA84207D9206C40F0F8
:100DB0000400206484F83C700320E9E720680068A0
:100DC0008007EBD521686FF012000860206C40F4BA
:100DD000007020642068816811F0405F13D1A16920
:100DE00089B9C16A11F4700F02D0806840050AD435
:100DF000206C20F480702064206CC00403D4206C2C
:100E000040F0010020640020C2E7000018B5002176
:100E1000009190F83C20012A07D0012280F83C2064
:100E200002689368DB0702D011E0022018BD9368C6
:100E300043F001039360204A204B1268B2FBF3F2A7
:100E400002EB420200E0521E0092002AFBD102682F
:100E50009368DB072DD0036C40F20164A34343F495
:100E60008073036453685B0505D5036C23F400535A
:100E700043F480530364036CDB0404D5436C23F018
:100E80000603436400E0416480F83C100C496FF0B5
:100E90002203136049680068C90602D009498842E4
:100EA00007D1816811F0405F03D1816841F0804132
:100EB0008160002018BD00006400002040420F0047
:100EC000002301400020014070472DE9F05F0546F6
:100ED000006800244669D0F804908768D0F80CB008
:100EE000D0F810A0D0F81880F10748D0F90714D036
:100EF00001218160B80703D5284600F0B5F90CE060
:100F0000780702D54FF4006407E0380702D54FF4A4
:100F1000805402E0284600F0A6F9F80516D52968A5
:100F20004FF480708860B80503D5284600F09EF91C
:100F30000CE0780502D544F4005407E0380502D5EA
:100F400044F4804402E0284600F08FF9F80316D5F7
:100F500029684FF480308860B80303D5284600F034
:100F600087F90CE0780302D544F4004407E0380325
:100F700002D544F4803402E0284600F078F93007C6
:100F800007D55FEACB6004D52968102044F40074CB
:100F9000C86070074FF0080707D55FEA0B7004D5EB
:100FA0002868C760284600F059F9B00706D52868B8
:100FB000C068800702D0284600F051F9700607D5B6
:100FC0005FEACA6004D52968102044F4806408618F
:100FD000B00607D55FEA0A7004D52868076128467D
:100FE00000F03EF9F00606D528680069800702D0B7
:100FF000284600F036F9B00308D55FEAC96005D588
:10100000296810204860284600F02CF9F00307D525
:101010005FEA097004D528684760284600F029F97E
:10102000300446D55FEA497040D5F00504D55FEA43
:10103000C87001D044F00104B00504D55FEA88709F
:1010400001D544F00204700504D55FEA487001D56B
:1010500044F00404300529D518F0700F26D008F0AC
:101060007000402815D006DC102809D020280AD0AE
:10107000302816D10AE050280ED0602811D10EE099
:1010800044F008040DE044F010040AE044F02004A9
:1010900007E044F0400404E044F0800401E044F43C
:1010A00080742868816921F07001816129680420B9
:1010B0004860002C05D0686A204368622846FFF724
:1010C00003FFBDE8F09F70B5040003D094F8200042
:1010D00010B104E0012070BD204600F081F82068C6
:1010E000016821F00201016000F0C6F905460526FD
:1010F00004E000F0C1F9401B0A2811D820684068BC
:101100008007F6D42068016841F00101016000F019
:10111000B3F905460BE000F0AFF9401B0A2806D9E9
:10112000606A40F40030606284F82060D2E7206892
:101130004068C007EFD0207E0128206801683DD0BC
:1011400021F080010160607E01282068016838D0AC
:1011500021F040010160A07E01282068016833D0A1
:1011600021F020010160E07E0128206801682ED076
:1011700041F010010160207F01282068016829D01A
:1011800021F008010160607F01282068016824D0F7
:1011900021F004010160D4E902010843D4E90412FA
:1011A000114308436168491E08432168C861002053
:1011B0006062012084F82000002070BD41F08001B1
:1011C000C0E741F04001C5E741F02001CAE721F046
:1011D0001001CFE741F00801D4E741F00401D9E75D
:1011E00010B586B0044614216846FFF77FF8184909
:1011F0002068884229D117480021026842F0007215
:101200000260006800F00070059012481038026813
:1012100042F002020260006800F0020005904FF404
:10122000407000900220CDE90101032003900920C5
:1012300004906946084800F03DF80022052114207A
:1012400000F06AFB142000F05BFB06B010BD00004C
:10125000006400404038024000040240704770477C
:1012600070477047704770477047704770477047C6
:101270007047704790F83510022903D080214165EE
:1012800001207047052180F835100068016821F0C1
:10129000010101600020704770470000044910B54B
:1012A0000A68024202D00860FFF7F6FF10BD000096
:1012B000143C01402DE9F84FDFF87CB100224FF0DB
:1012C00001084FF0030A4FF00F090BF1040E00BFA5
:1012D0000B6808FA02F42340A3426ED14D68022D38
:1012E00001D0122D0ED1D50800EB850CDCF8205072
:1012F0005607F70E09FA07F6B5430E69BE402E43AE
:10130000CCF82060066855000F790AFA05FC07F052
:10131000030726EA0C06AF40374307604E68012EEC
:1013200005D0022E03D0112E01D0122E0ED18668C8
:10133000CF6826EA0C06AF40374387604668A6436D
:101340000C79C4F30014944034434460C6688C683C
:1013500026EA0C06AC403443C4604C68E40065D512
:10136000364C256845F480452560246822F0030545
:1013700004F480440094324C2E19D6F8084895079E
:101380002F0F09FA07F5AC432E4DA84201D10025D5
:1013900024E02D4DA84201D101251FE02B4DA8428C
:1013A00001D102251AE02A4DA84201D1032515E0FA
:1013B000284DA84202D1042510E037E0264DA8426E
:1013C00001D105250AE0254DA84201D1062505E0F9
:1013D000234DA84201D1072500E00825BD40254343
:1013E000C6F80858DBF800405D464E689C43F6039B
:1013F00000D51C432C60DEF8004075464E689C43C7
:10140000B60300D51C432C600B4D08352C684E6884
:101410009C43F60200D51C432C60074D0C352C680C
:101420004E689C43B60200D51C432C60521C102A07
:10143000FFF44EAFBDE8F88F003C01404438024055
:101440000030014000000240000402400008024059
:10145000000C02400010024000140240001802403C
:10146000001C024042694A40426170470AB18161F2
:1014700070470904FBE700000148806870470000DE
:1014800068000020704770472DE9F05F026804464D
:10149000D2F818805569566890F83E007449DFF814
:1014A000D0A1DFF8CCB1DFF8CC918F1C0AF17E0A15
:1014B0000BF13E0B102812D0402810D00D425BD00B
:1014C000B00559D5936920460021DB435B0700D561
:1014D00001219269D243120648D5828947E015F06E
:1014E000011F05D0B00503D5204601F025FB10E013
:1014F0005F48801D054205D0B00503D5606CC0B2C1
:10150000106106E00D4204D0B00502D5204601F07E
:1015100099FA18EA090F14D015EA0A0F08D07005D5
:1015200006D53D4206D12046BDE8F05F01F006BA7F
:101530003D421FD0B0051DD52046BDE8F05F01F04B
:10154000BCB915EA0B0F08D0700506D53D4206D18F
:101550002046BDE8F05F01F06EB93D420AD0B0050B
:1015600008D52046BDE8F05F01F006B9028B92B2C3
:10157000FFF789FFBDE8F09F3D480E30054206D0D9
:10158000B00504D52046BDE8F05F01F003BB18EAC2
:10159000090F4FF0280134D015EA0A0F23D0700547
:1015A00021D53D4221D194F83D302046628D002A5C
:1015B000E0D0426A541C4462046812782261428D71
:1015C000521E4285428D002AD4D1292BD2D10268E5
:1015D000536823F4806353602122026380F83D1036
:1015E00000F015F9C6E73D42C4D0B005C2D5608D04
:1015F0000028BFD0606A411C6162216800780861E0
:1016000031E015EA0B0F22D0700520D53D4220D1E4
:1016100094F83D302046648D002CABD01469426AAA
:10162000551C45621470428D521E4285428D002A1F
:10163000A0D12A2B9ED10268536823F480635360A3
:101640002222026380F83D1000F0E0F892E73D426C
:1016500090D0B0058ED5608D00288BD01169606A5E
:10166000421C62620170608D401E608582E700004E
:1016700002000100040010007047000070B5040073
:1016800004D094F83D00002510B106E0012070BDA3
:1016900084F83C50204600F07BF8242084F83D007C
:1016A0002068016821F00101016000F01FFA334950
:1016B0002268B0FBF1F15160314A6368934206D968
:1016C0004FF4967359434FF47A73B1FBF3F12368E7
:1016D000491C1962616891420BD84900B0FBF1F2D4
:1016E000C2F30B02042A01D2042019E0B0FBF1F08E
:1016F00016E0A3689BB301EBC10202EB0112B0FB41
:10170000F2F242F48042120530D04BB301EBC10239
:1017100002EB0111B0FBF1F040F4804040F40040D6
:101720002168C861D4E90701084321680860D4E949
:101730000310084321688860D4E905010843216843
:10174000C8602068016841F0010101602564202023
:1017500084F83D00256384F83E50002070BD00E011
:1017600006E001EB4102B0FBF2F2CCE70120D7E743
:1017700001EB4101B0FBF1F0D0E7000040420F0067
:10178000A08601007047704770477047704700009F
:1017900010B586B0044614216846FEF7A7FD184927
:1017A0002068884229D11748016841F00201016090
:1017B0000068694600F0020005904FF44060009018
:1017C0001220019001200290032003900420049035
:1017D0000D48FFF76FFD0B481030016841F48001A0
:1017E00001600068002200F480000590114621206D
:1017F00000F092F8212000F083F806B010BD000040
:1018000000580040303802400004024070477047E2
:1018100002488168027811448160704768000020A6
:101820000B4810B5016841F400710160016841F492
:1018300080610160016841F480710160032000F063
:101840008BF8002000F006F800F03EF8002010BDF4
:10185000003C024010B5014688B00022192000F07B
:101860005BF8192000F04CF813480024016841F09F
:1018700001010160006805A900F0010006906846BA
:1018800000F014F900F042F90C494000B0FBF1F10E
:101890000C480B4A491E026040F2E732C0E90324BB
:1018A000C0E9011400F0BEFD10B1012008B010BD68
:1018B000044800F0D3FDF9E74438024040420F00ED
:1018C00000000140840200200C4882B0016841F40D
:1018D00080410160006800F4804000900748001FCC
:1018E000016841F0805101600068002200F08050E2
:1018F00000900F21901E02B000F00EB84438024054
:1019000000F01F02012191404009800000F1E02019
:10191000C0F8001170470000F0B40E4B1B680C4675
:10192000C3F30223C3F10705042D00D90425191DB3
:10193000072901D2002300E0DB1E012606FA05F18B
:10194000491E214099409E40761E16403143F0BC0E
:1019500001F086BB0CED00E0064900F007020868C4
:101960004FF6FF03184040EA0220034A1043086084
:10197000704700000CED00E00000FA052DE9F0478B
:101980000E46050065D0DFF81481D8F80000F7B2E4
:1019900000F00F00B04207D288F80070D8F80000BD
:1019A00000F00F00B04254D128683D4C810712D599
:1019B000400703D5206840F4E050206028780007F5
:1019C00003D5206840F4604020602068A96820F0BA
:1019D000F000084320602878C0072DD0304968689F
:1019E0000839012812D0022813D0032811D0096821
:1019F000890700292DDA216821F0030101432160C4
:101A0000FFF73AFD814641F2883A0EE00968890302
:101A1000EFE709688901ECE7FFF72EFDA0EB09016C
:101A2000514502D90320BDE8F0872068696800F0BD
:101A30000C00B0EB810FEFD1D8F80010404601F058
:101A40000F01B14207D90770006800F00F00B042E3
:101A500001D00120E7E72878400705D52068E9682C
:101A600020F4E050084320602878000706D520685D
:101A7000296920F4604040EAC100206000F056F877
:101A80002168084AC1F30311515CC8400649086047
:101A90000020FFF7DFFE0020C5E70000003C024009
:101AA0000838024098490008640000200F220260B4
:101AB0000C4A136803F003034360136803F0F00358
:101AC0008360136803F4E053C36012684FF4E0537B
:101AD00003EAD20202610448006800F00F000860C7
:101AE0007047000008380240003C024004480549A5
:101AF00000680968044AC1F38221515CC8407047FC
:101B00006400002008380240A8490008044805493C
:101B100000680968044AC1F34231515CC84070470B
:101B20006400002008380240A8490008154810B594
:101B3000006810F00C02144813D04110042A0FD092
:101B4000082A0ED10F4C241F2268236802F03F029E
:101B50005B0207D52068C0F38810A0FB010106E0F6
:101B6000084610BD2168C1F38811A1FB00010023C4
:101B7000FEF784FB2168C1F30141491C4900B0FB19
:101B8000F1F010BD083802400024F4002DE9F84FB0
:101B9000050076D02878DFF8F8B2BE4CC00749D0EF
:101BA000DBF800105846C1F38101012908D0006814
:101BB000C0F3810002280AD1201D0068400206D52A
:101BC0002068800336D568680028E2D032E0686873
:101BD000B0F5803F10D0B0F5A02F206810D020F4D1
:101BE00080302060206820F4802020606868A0B1E8
:101BF000FFF742FC06460CE0206840F48030F4E732
:101C000040F480202060F7E7FFF736FC801B642853
:101C100073D820688003F7D50CE0FFF72DFC06464B
:101C200005E000BFFFF728FC801B6428F0D820687F
:101C30008003F7D42878DFF8608280074FF000092E
:101C40003ED5DBF80010584611F00C0F09D00068A3
:101C5000C0F3810002280BD18D48001F00684002AC
:101C600006D42068800715D5E868012809D111E05D
:101C7000E868B8B10120C8F80000FFF7FDFB064690
:101C800005E002E1FFF7F8FB801B0228C0D82068BE
:101C90008007F7D52068296920F0F80040EAC100E4
:101CA00020600DE0C8F80090FFF7E6FB064604E070
:101CB000FFF7E2FB801B02281FD820688007F7D4BB
:101CC0002878000722D5724E744869696C3671B164
:101CD00001210160FFF7D0FB074604E0FFF7CCFBD2
:101CE000C01B022809D830688007F7D50EE0C0F87D
:101CF0000090FFF7C1FB074605E083E0FFF7BCFB60
:101D0000C01B02287ED830688007F7D428784007A7
:101D100068D5DFF87CA100270AF1380ADAF800005C
:101D2000C0000BD4DAF8001041F08051CAF800105E
:101D3000DAF80000012700F080500090584E30681B
:101D4000C00510D4306840F480703060FFF794FB19
:101D5000009005E0FFF790FB0099401A022851D847
:101D60003068C005F6D54A4EA868683601280FD0FD
:101D70000528306810D020F001003060306820F075
:101D800004003060A868B8B1FFF776FB00900FE060
:101D9000306840F00100F4E740F004003060F7E7FD
:101DA000FFF76AFB0099411A41F28830814264D8FA
:101DB00030688007F4D50EE0FFF75EFB009007E087
:101DC000FFF75AFB0099411A41F28830814254D8FA
:101DD00030688007F4D42FB1DAF8001021F0805178
:101DE000CAF80010A869C0B3DBF80010C1F3810184
:101DF00002294AD00228484607D0C8F86000FFF7F9
:101E00003BFB00E039E005463AE04746C8F8600091
:101E1000FFF732FB064604E0FFF72EFB801B02288B
:101E20002BD820688001F7D4D5E907010843A96AB7
:101E30001C4A490802EB01416A6A41EA82110843DF
:101E400095F82C1040EA01611148001F0160012043
:101E50003866FFF711FB054605E014E0FFF70CFBC1
:101E6000401B022809D820688001F7D50BE000BF8D
:101E7000FFF702FB401B022802D90320BDE8F88FC0
:101E800020688001F4D40020F8E70120F6E7000084
:101E9000083802400038024000004742800E4742A6
:101EA000007000400000FFFF70B5040005D0002561
:101EB000A56294F8510010B106E0012070BD84F8CD
:101EC0005050204600F030F8022084F8510020687D
:101ED000016821F040010160D4E901010843D4E91F
:101EE00003121143084361690843218B01F4007117
:101EF0000843E1690843216A0843A16A084321684D
:101F00000860A069042101EA1040616A0843216861
:101F100048602068C16921F40061C16165650120E4
:101F200084F85100002070BD10B586B0044614211D
:101F30006846FEF7DBF913492068884220D1124831
:101F40000021026842F480520260006800F4805070
:101F500005900D481438026842F0010202600068E2
:101F600000F001000590E02000900220CDE9010181
:101F7000032003900520049069460448FFF79AF96E
:101F800006B010BD0030014044380240000002405D
:101F90002DE9F84F044640680026984617460D463E
:101FA0004FF00409B0F5827F01D1A06890B194F898
:101FB0005000012819D04FF0010B84F850B0FFF702
:101FC0005BFA009094F851004FF0000A01280ED0FF
:101FD00002267FE084F8519013460A462046CDF849
:101FE000008000F031F9BDE8F88F0220FBE7002DFA
:101FF0006FD0002F6DD084F85190C4F854A0A56321
:10200000A787E787C4F830A0A4F834A0A4F836A0C6
:10201000C4F840A0C4F844A0A0684FF40047B842F8
:1020200004D12068016821F48041016020680168C2
:10203000490603D4016841F040010160E068B8B18D
:1020400033E020688168C90706D0007B05F8010BE2
:10205000E08F401EE0870BE0B8F1000F23D0B8F10D
:10206000FF3F05D0FFF708FA0099411A41451AD2FF
:10207000E08F0028E5D11BE020688168C90706D001
:10208000C06825F8020BE08F401EE0870DE0B8F134
:10209000000F08D0B8F1FF3F07D0FFF7EDF9009926
:1020A000411A414501D3032614E0E08F0028E3D113
:1020B0006068B0F5827F0AD1A068B84202D0B0F55E
:1020C000806F04D12068016821F040010160606DDB
:1020D00000B1012684F851B084F850A0304682E760
:1020E0002DE9F84F044690F850000026994617460F
:1020F0000D4601280DD04FF0010B84F850B0FFF7CA
:10210000BBF9804694F85100B246012804D002265B
:1021100094E00220BDE8F88F002D7BD0002F79D00D
:10212000032084F85100C4F854A02563A786E786ED
:10213000C4F838A0A4F83CA0A4F83EA0C4F844A079
:10214000C4F840A0A068B0F5004F04D12068016831
:1021500041F48041016020680168490603D40168A8
:1021600041F040010160E068B0F5006F606804D0A4
:1021700030B3E08E012823D03EE010B1E08E01287C
:102180001AD135F8021B206805E0206881688907AC
:1021900006D535F8021BC160E08E401EE0860BE0DC
:1021A000B9F1000F34D0B9F1FF3F05D0FFF764F962
:1021B000A0EB080149452BD2E08E0028E5D11EE0B6
:1021C000216815F8010B087306E02068816889070B
:1021D00006D515F8011B0173E08E401EE0860BE06A
:1021E000B9F1000F14D0B9F1FF3F05D0FFF744F962
:1021F000A0EB080149450BD2E08E0028E5D14B4603
:10220000012202212046CDF8008000F0C5FF10B168
:10221000032613E011E042464946204600F084FFC1
:1022200018B101262020606508E0A06818B9206870
:10223000C16880680090606D00B1012684F851B0DB
:1022400084F850A0304665E72DE9F84F044690F831
:10225000500000260A9F9A4693460D464FF001080B
:1022600001280ED0012084F85000FFF705F98146BF
:1022700094F85100616801280CD0B1F5827F07D134
:1022800002E00220BDE8F88FA16809B9042801D056
:102290000226BDE055B1BBF1000F07D0BAF1000F27
:1022A00004D094F85100012802D004E00126AFE0E8
:1022B000052084F8510000206065C4F838B0A4F807
:1022C0003EA0A4F83CA02563A4F836A0A4F834A04E
:1022D0002064606420680168490603D4016841F005
:1022E00040010160E068B0F5006F606804D0E8B3B9
:1022F000E08E01283BD06AE010B1E08E01282ED19B
:10230000216835F8020BC860E08E401EE08626E0AA
:10231000B8F1000F0DD0E08E58B1206881688907B0
:1023200007D535F8021BC160E08E401EE0864FF0F5
:102330000008E08F58B120688168C90707D0C068DD
:102340002BF8020BE08F401EE0874FF00108781C4D
:1023500005D0FFF791F8A0EB0900B84246D2E08E15
:102360000028D5D1E08F0028D2D136E0FFE72168E0
:1023700015F8010B0873E08E401EE08627E000BFD1
:10238000B8F1000F0DD0E08E58B120688168890740
:1023900007D515F8011B0173E08E401EE0864FF053
:1023A0000008E08F58B120688168C90707D0C0686D
:1023B0000BF8010BE08F401EE0874FF00108781CFE
:1023C00005D0FFF759F8A0EB0900B8420ED2E08E15
:1023D0000028D5D1E08F0028D2D13B46012202212E
:1023E0002046CDF8009000F0D7FE08B103260FE09C
:1023F0004A463946204600F097FE18B101262020B3
:10240000606505E0A06818B92068C1688068009020
:10241000012084F85100002084F85000304631E754
:102420007047704710B5040003D094F8390010B11C
:1024300007E0012010BD002084F83800204600F09D
:102440000CF8022084F83900211D206800F0C2FF3A
:10245000012084F83900002010BD70470168CA6867
:1024600042F00102CA600068016841F001010160A8
:1024700000207047704770B50446006801694FF04E
:102480000005C943890715D4C168C943890711D418
:10249000E91E0161012020762068806980072046BE
:1024A00002D0FFF7E7FF04E000F098F8204600F0C4
:1024B00096F8257620680169C943490717D4C16891
:1024C000C943490713D46FF004010161022020764B
:1024D0002068806910F4407F204602D0FFF7CAFFD1
:1024E00004E000F07BF8204600F079F825762068BB
:1024F0000169C943090716D4C168C943090712D441
:102500006FF008010161042020762068C06980070F
:10251000204602D0FFF7AEFF04E000F05FF820464F
:1025200000F05DF8257620680169C943C90617D413
:10253000C168C943C90613D46FF0100101610820B6
:1025400020762068C06910F4407F204602D0FFF753
:1025500091FF04E000F042F8204600F040F82576B4
:1025600020680169C943C90708D1C168C943C907BF
:1025700004D1891E0161204600F032F8206801690B
:10258000C943090609D4C168C943090605D46FF0D7
:10259000800101612046FFF743FF20680169C943BC
:1025A000490609D4C168C943490605D46FF0400102
:1025B0000161204600F01EF820680169C9438906C0
:1025C0000BD4C168C943890607D46FF020010161AB
:1025D0002046BDE87040FFF724BF70BD70477047CC
:1025E00000680349884201D1FFF712B97047000023
:1025F000000001407047FEE70148FEF745BF0000BC
:10260000D801002010B5806B01680A6822F480624E
:102610000A6000214185426B1165826B116590F85B
:102620003D302022602B80F83D2080F83E1007D0FE
:1026300001680A6822F001020A60FFF71DF810BD68
:10264000016401680A6822F001020A60FEF71AFFBD
:1026500010BD000070B590F83D10044600252026FE
:10266000006829292DD02A292BD094F83D10602903
:1026700004D04168090501D484F83D60256384F8DD
:102680003E50016821F4006101602068416809053D
:1026900037D5416821F400614160606B90F83520C6
:1026A0003349012A12D00165606BFEF7E3FD38B3B0
:1026B0002068016821F00101016084F83D60606BD1
:1026C0001CE02563282184F83D10DAE7A06B016542
:1026D000A06BFEF7CFFD98B120684169C943490658
:1026E00004D40169606A421C62620170206801685A
:1026F00021F00101016084F83D60A06B016D884705
:102700000FE094F83D1060291DD04169C943490686
:1027100004D40169606A421C626201702046FEF7BF
:10272000ABFF94F83D0028280CD1206C400709D558
:102730001048E062256384F83D6084F83E502046EE
:10274000FFF720F870BD84F83D6025644169C943F6
:10275000490604D40169606A421C62620170206803
:10276000016821F0010101602046FEF78BFED8E7E9
:10277000052600080000FFFF10B5C26A438D0168FE
:10278000042B06D0438D032B08D0438D022B19D088
:102790000EE04A6822F480624A6008E04A6822F447
:1027A00080624A6001680A6822F480620A600168F7
:1027B0000A69416A4B1C43620A70418D491E41857A
:1027C000002010BD022A2AD0012A28D00A6842F42B
:1027D00000720A6001680A69416A4B1C43620A7010
:1027E000418D491E418501680A69416A4B1C43625B
:1027F0000A70418D491E418501684A6822F4407281
:102800004A60202180F83D100021016390F83E20AD
:1028100080F83E10402A0BD0FEF7B5FFD0E70A68DB
:1028200022F480620A6001680A6842F48072D0E78C
:10283000FEF7ABFFC4E710B590F83D10222937D161
:10284000418D032911D901680A69416A4B1C436211
:102850000A70418D491E4185418D032928D10068A8
:10286000416821F48061416022E0012900D0F9B97A
:1028700001680A6822F480620A6001684A6822F4EA
:10288000E0624A6001680A69416A4B1C43620A704F
:10289000418D491E4185202180F83D1000210163B2
:1028A00090F83E2080F83E10402A03D0FEF76BFFE0
:1028B000002010BDFEF769FFFAE710B5C26A90F874
:1028C0003D10212921D1418D49B1416A4A1C426202
:1028D000026809781161418D491E418515E0202368
:1028E0000021042A13D0082A11D012F5803F0ED0FF
:1028F0000268546824F4E06454601122026380F892
:102900003E1080F83D30FEF73FFF002010BD02680A
:10291000546824F4E06454600268146844F4007459
:102920001460016380F83D3090F83E2080F83E103E
:10293000402AE8D1FEF72AFFE7E7000010B590F83B
:102940003D1090F83E30C26A048D24B1212934D064
:10295000402B30D074E02129FAD120230021042A11
:1029600013D0082A11D012F5803F0ED002685468A7
:1029700024F4E06454601122026380F83E1080F871
:102980003D3000BFFEF700FF5AE00268546824F4AF
:10299000E06454600268146844F4007414600163D5
:1029A00080F83D3090F83E2080F83E10402AE9D172
:1029B000FEF7ECFE44E0222942D1418D21B190F88E
:1029C0003E10402906D032E00068416821F4806161
:1029D000416035E0016D31B1016D012911D0016D0A
:1029E000022915D02CE0C16C0129816C02D0C1F301
:1029F000072108E00268C9B21161016D891C0165F7
:102A00001EE0816CC9B202681161016D491CF6E7D4
:102A100090F83D10222904D090F83D10212906D0CD
:102A20000EE00068016841F48071016008E0416ACD
:102A30004A1C4262026809781161418D491E418534
:102A4000002010BD78B590F83E50C26A036B90F834
:102A50003D6000240168222E06D1066D0EB9402D7E
:102A600002D0056D25B107E048698869009058E0FB
:102A70000569B5F5404F08D0458D55B3458D012DFD
:102A80000ED0428D022A37D04DE04A698A69009201
:102A90000A6842F480720A60016D491C016540E0D9
:102AA00012F5803F09D0042A20D0082A1ED0122B0C
:102AB0001CD0C26A022A08D113E00A6822F480629C
:102AC0000A6001684A68120503D50A6822F4806228
:102AD0000AE04A698A6900920A6842F400720A6050
:102AE0001EE00A6842F480620A6015E00A6822F477
:102AF00080620A600168ECE7C26A022A13D00A68A1
:102B000022F480620A6001680A6842F400620A6086
:102B100001684A6812050AD401684A698969009106
:102B20000465002078BD0A6842F48062EFE74A68D5
:102B300042F480524A60EFE790F83E10402909D0F5
:102B40000169B1F5804F10D0016D99B1016D012976
:102B500015D01CE0016D19B9416C01F0FE0114E0C3
:102B6000416CC9B241F001010FE090F83D102129FC
:102B7000F6D1F1E7416CF02201F4407103E0416CC1
:102B8000F12201F4407142EAD11100680161002094
:102B90007047000038B590F83D2001684B6823F479
:102BA000E0634B60036800215C6900941C6844F09A
:102BB00001041C6003681C6824F480641C600368C2
:102BC0005C6824050BD590F83D40222C2BD090F862
:102BD0003D402A2C27D0446B246864684485448D8A
:102BE000E4B15C69E443640707D41C69436A5D1C73
:102BF00045621C70438D5B1E438503685C69E4433A
:102C0000640607D41C69436A5D1C45621C70438DD1
:102C10005B1E4385036C43F004030364036C23B120
:102C2000FFF718FD1FE0846BD6E72023282A09D080
:102C30002A2A07D0292A05D0046B222C0CD0222A5C
:102C40000AD010E0094AC262016380F83D3080F882
:102C50003E10FEF797FD06E0016380F83D3080F8F6
:102C60003E10FEF7D3FD002038BD00000000FFFF3E
:102C700070B5184D002208212846FEF7F7FB164CC8
:102C80002020322320701720607002222146134832
:102C9000FFF726FA012208212846FEF7E7FB00226B
:102CA00008212846FEF7E2FBA020207032230122F3
:102CB00021460A48FFF714FA32230122A11C0748D3
:102CC000FFF766F92846BDE8704001220821FEF7AB
:102CD000CDBB000000100240600000202C0200204C
:102CE0001FB500211548009101910291124A0391EC
:102CF00002604FF4803242600161120281618260A1
:102D000001620F4AC0E90A210124C160C461446123
:102D10000163FDF788FF08B1FDF7DBFE0220009498
:102D2000CDE9014069460548FDF7D4FE002801D0F1
:102D3000FDF7CFFE1FBD000000200140D80000209D
:102D40000100000F7FB500241548009401940294FF
:102D50001249039401604FF4803141600461846141
:102D60004902046281600F49C0E90A140125C46068
:102D7000C56145610463FDF756FF08B1FDF7A9FE83
:102D80000B20CDE90005694602940548FDF7A2FE37
:102D9000002801D0FDF79DFE7FBD0000002101400D
:102DA000200100200100000F7FB500241548009489
:102DB000019402941249039401604FF48031416000
:102DC000046184614902046281600F49C0E90A1408
:102DD0000125C460C56145610463FDF724FF08B1A6
:102DE000FDF777FE0C20CDE9000569460294054801
:102DF000FDF770FE002801D0FDF76BFE7FBD0000DF
:102E000000220140680100200100000F0F4810B5AA
:102E10000D4901601521416000214FF4302281608D
:102E2000C0E903124FF44012426101764176817687
:102E3000C17601774177FEF746F9002803D0BDE857
:102E40001040FDF746BE10BD00640040B0010020F8
:102E50002DE9F04F87B014216846FDF747FA57482F
:102E60000024016841F010010160016801F01001C7
:102E70000591016841F080010160016801F0800165
:102E80000591016841F004010160016801F004014D
:102E90000591016841F001010160016801F0010143
:102EA0000591016841F002010160016801F0020131
:102EB0000591016841F0080101600068DFF800A198
:102EC00000F008000590002208215046FEF7CEFAD7
:102ED000DFF8F0B04FF20347002239465846FEF7BC
:102EE000C5FA4FF4F858002241463748FEF7BEFABB
:102EF0004FF4C059002249463448FEF7B7FA08207B
:102F000000900125CDE90154694650460394FEF72F
:102F1000D1F92F4E0095CDE9016469462A48FEF7A4
:102F2000C9F90720CDE9000469462A480294FEF752
:102F3000C1F98020CDE90004694650460294FEF7AD
:102F4000B9F90097CDE90154694658460394FEF754
:102F5000B1F9E802CDE90004694658460294FEF74B
:102F6000A9F9CDF80080CDE90154694616480394CB
:102F7000FEF7A0F9CDF80090CDE901546946134859
:102F80000394FEF797F91820CDE9000669460294EC
:102F90001048FEF78FF9002211460620FEF7BCFC10
:102FA0000620FEF7ADFC002211460920FEF7B4FC16
:102FB0000920FEF7A5FC07B0BDE8F08F30380240CD
:102FC00000100240000C02400000024000080240D5
:102FD00000001110000402400D4810B50B490160BB
:102FE0000C49416000214FF480428160C0E9031226
:102FF00041618161C1610162FEF740FB002803D09D
:10300000BDE81040FDF765BD10BD00000058004050
:10301000D8010020A08601000F4810B50D490160BD
:103020004FF48271416000218160C1604FF40072F1
:103030000161C0E90512C1610162416281620A2138
:10304000C162FEF731FF002803D0BDE81040FDF754
:1030500040BD10BD003001402C020020FEE770474B
:103060000907090E002806DA00F00F0000F1E02041
:1030700080F8141D704700F1E02080F800147047BC
:1030800070B528202DED028B00F05EF8C4B2292027
:1030900000F05AF8C0B204EB00204FF40044A04204
:1030A00001DBA0F58030FDF7B4FA9FED1C8B53ECEB
:1030B000182BFDF7CDF91B4DC5E912012A2000F0B0
:1030C00043F8C6B22B2000F03FF8C0B206EB002058
:1030D000A04201DBA0F58030FDF79BFA53EC182BE2
:1030E000FDF7B6F9C5E914012C2000F02DF8C6B2A1
:1030F0002D2000F029F8C0B206EB0020A04201DB31
:10310000A0F58030FDF785FA53EC182BFDF7A0F9F8
:10311000C5E91601BDEC028B70BD00000000000087
:103120000000103F0000002038B50B460092044616
:103130000022802100F030F8002804D0606D40F0BB
:1031400020006065032038BD70B5104D0446002294
:1031500008212846FEF78AF90D4944F08000322301
:10316000087001220B48FEF7BBFF094932230122F8
:10317000891C0848FEF70CFF012208212846FEF7AB
:1031800075F90348801C007870BD000000100240F3
:10319000600000202C0200202DE9F0411D4617465A
:1031A0000E460446DDF8188035E0681C33D02DB19A
:1031B000FEF762F9A0EB0800A8422CD32068416812
:1031C00021F0E00141606068B0F5827F0BD1A0681A
:1031D000B0F5004F02D0B0F5806F04D120680168CF
:1031E00021F040010160A06AB0F5005F0AD12068BB
:1031F00001684DF6FF72114001602068016841F4DA
:1032000000510160012084F85100002084F8500032
:103210000320BDE8F0812068806836EA000004D011
:103220000020B842C1D10020F3E70120F9E70000F7
:1032300008B501F0ABFA204D4FF480560090002203
:1032400031462846FEF712F974000022214628462E
:10325000FEF70CF96700002239462846FEF706F90A
:103260004FF40048012241462846FEF7FFF8A146E8
:10327000B246124C464651466068401C6060284683
:10328000FEF7F0F849462846FEF7ECF8394628469E
:10329000FEF7E8F831462846FEF7E4F8FDF786FB2E
:1032A00084ED060BFDF7C8FB84ED080BC8216846CA
:1032B00001F0B8F8DFE70000000C02400000002039
:1032C00010B5502080F31188BFF34F8FBFF36F8F7D
:1032D00001F062FA18B104494FF0805008600020F4
:1032E00080F3118810BD000004ED00E030B593B00C
:1032F00030216846FCF7FAFF14210CA8FCF7F6FF12
:103300001A480025016841F080510160006800F012
:10331000805011901648016841F4804101600068B6
:10332000022400F4804011900120009000040190DC
:103330008001CDE90640082008904FF4A870CDE93F
:10334000090407200B906846FEF720FC0CA90F200B
:1033500081E831004FF4A0500F90E0021090052159
:103360000CA8FEF70BFB13B030BD00004038024044
:10337000007000401048016841F4700101600F487E
:10338000016841F0010101600C4A0021083211601E
:1033900002680B4B1A400260031D0A4A1A60026859
:1033A00022F48022026005480C3001600249580670
:1033B000803908607047000088ED00E00038024066
:1033C000FFFFF6FE103000240148FFF754B800005C
:1033D00084020020F0B50268234B244D244E254F73
:1033E000254C4FF0804C984209D0604507D0A84248
:1033F00005D0B04203D0B84201D0A04204D122F09F
:10340000700E4A6842EA0E0298421BD0604519D0FD
:10341000A84217D0B04215D0B84213D0A04211D064
:10342000164DA8420ED0164DA8420BD0154DA842FD
:1034300008D0154DA84205D0144DA84202D0144D15
:10344000A84203D122F44075CA682A4302608A6800
:10345000C2620A688262984201D0A04201D1096921
:10346000016301214161F0BD000001400004004002
:1034700000080040000C00400004014000400140F2
:10348000004401400048014000180040001C00407A
:1034900000200040FEE703B401984100009850EA84
:1034A000C12018BF04204A0D18BF40F0010040F2AF
:1034B000FF72B2EB515F08BF40F00200012808BF65
:1034C000052002B07047000070B59B482DED020B3F
:1034D0002DED068B079D25F00044A04218DC97488F
:1034E000844202DC0AD1069840B19DED060BBDEC8A
:1034F000068B02B0BDE8704000F003BB002DCCBFCE
:103500009FED8F0B9FED900BBDEC068B02B070BD55
:103510008F48A04215DD8F48A042D8BF4FF0FF343E
:1035200058DD9DED060B51EC100BFFF7B4FF04289E
:1035300008BF00F0FDFA9DED060BBDEC068B02B056
:1035400070BD9DED060B51EC100B00F01FFBCDE99B
:10355000060181489FED828BA0423CDD8248A0425B
:103560001FDD00249FED82AB9DED060B53EC1A2B63
:1035700051EC100BFCF7C5FE9DED060B41EC190B51
:1035800053EC1A2B51EC100BFCF762FF53EC182B89
:10359000FCF758FF53EC192BFCF7CCFFCDE90601E3
:1035A00049E09DED060B012453EC182B51EC100B58
:1035B000FCF7A7FE9DED060B41EC190B53EC182B05
:1035C00051EC100BFCF73EFF53EC192BFCF7B2FF4C
:1035D000CDE906012FE06848A0421FDD02249FEDDF
:1035E000689B9DED060B53EC192B51EC100BFCF76F
:1035F0002FFF53EC182BFCF784FE9DED060B41ECDE
:10360000180B53EC192B51EC100BFCF71BFF53EC70
:10361000182BFCF78FFFCDE906010CE09DED060BA2
:10362000032453EC102B9FED580B51EC100BFCF7BF
:1036300081FFCDE906019DED060B53EC102B51ECFB
:10364000100BFCF705FF41EC180B53EC182BFCF7A3
:10365000FFFE41EC190B4E480621B0EE490AF0EE90
:10366000690A784400F0D1F953EC182B51EC100B97
:10367000FCF7EEFE41EC180B4648B0EE490AF0EEBE
:10368000690A0521784400F0C0F953EC192B51EC7C
:10369000100BFCF7DDFE41EC100B51EC180B53EC5A
:1036A000102B002C0EDAFCF72CFE9DED061B53ECC4
:1036B000112BFCF7CDFE9DED061B53EC112BFCF7F7
:1036C000C4FE35E0FCF71DFE9DED061B53EC112BEF
:1036D000FCF7BEFE41EC100B2F48784400EBC40011
:1036E00090ED001B51EC100B53EC112BFCF7AAFED4
:1036F0009DED061B53EC112BFCF7A4FE41EC100BC7
:103700002648784400EBC40090ED001B51EC100BF0
:1037100053EC112BFCF799FE41EC100B002DA2BFCE
:10372000BDEC068B02B070BD51EC100B81F0004176
:1037300041EC100B01E70000000010440000F07F96
:10374000182D4454FB21F93F182D4454FB21F9BF97
:103750000000DC3F0000203E0000F33F00000000BE
:10376000000000000000F03F0000E63F0000000005
:103770000000000000000040008003400000000046
:10378000000000000000F83F000000000000F0BF53
:10379000B213000068130000F2120000AA12000029
:1037A00070B56B4E2DED040B2DED028B82B0DDF864
:1037B0001CC0DDE905235C422CF000411C4341EABA
:1037C000D474049D22F00040B44205D86C422C43CE
:1037D00040EAD474B4420BD99DED061B9DED040B59
:1037E00002B0BDEC028B04B0BDE8704000F093B9AC
:1037F000ACF14054A4F17F641C430BD0022404EAD2
:10380000AC7444EAD27405439FED538B9FED542B67
:1038100007D015E09DED040B51EC100B00F0AEF954
:1038200042E0002C11BF012C9DED040B02B0BDEC59
:10383000028B04BF04B070BD022C38D0032C3BD0E7
:103840000B439FED491B9FED4A0B0AD0B14218D1A3
:10385000B04209D121F0804120F0804007910590CD
:103860000FE0002A15DA10E0434B7B44002C08BF20
:1038700093ED000B0DD0012C10D0022C17D0032C8F
:103880001AD0B0421DD1002A03DAB0EE410AF0EEA0
:10389000610A02B0BDEC028B04B070BD93ED000B69
:1038A00051EC100B81F0004141EC100BF1E7B0EE50
:1038B000480AF0EE680AECE7B0EE420AF0EE620A5F
:1038C000E7E7401A00153C28C8BF8DED000B19DC56
:1038D000BCF1000FBEBF10F13C0F9FED290B8DED29
:1038E000000B0FDB9DED060B53EC102B9DED040B35
:1038F00051EC100BFCF71EFE00F048F900F03EF909
:10390000CDE90001002C08BF9DED000BC1D0012CBA
:1039100010D0022C9FED1C0B53EC102B9DED000BD7
:1039200051EC100B0DD0FCF78DFD53EC182BFCF770
:1039300089FDB9E7019880F0004001909DED000BF2
:10394000A7E7FCF77FFD53EC182BFCF77EFDABE7F8
:103950000000F07F00000000182D4454FB210940B6
:10396000182D4454FB2109C0182D4454FB21F9BFE4
:10397000182D4454FB21F93FDA110000000000002B
:103980000000000000000000075C143326A6A13CE4
:1039900000B52DED048BB0EE409AF0EE609A83B046
:1039A00051EC190BFCF704FF41EC180B18EE100A50
:1039B00018EE901A8DED008B002818BF01200843E7
:1039C00020F00040C0F17F6000F1E040C00F14D053
:1039D00019EE101A19EE900A8DED009B002918BF00
:1039E0000121084320F00040C0F17F6000F1E04079
:1039F000C00F04BF012000F0BBF8B0EE480A03B0CE
:103A0000F0EE680ABDEC048B00BD70B504462DEDE8
:103A1000028B4D1E00EBC500B0EE408AF0EE608ACE
:103A200090ED000B35F0060017D053EC182B51EC3D
:103A3000100BFCF70DFD41EC100B6D1E04EBC500E7
:103A400090ED001B51EC100B53EC112BFCF759FCC3
:103A500041EC100B35F00600E7D1022D36D0042DD5
:103A60001CD0062D1CBFBDEC028B70BD53EC182B77
:103A700051EC100BFCF7ECFC94ED0A1B53EC112BF2
:103A8000FCF73FFC53EC182BFCF7E2FC94ED081B11
:103A900053EC112BFCF735FC41EC100B53EC182BBD
:103AA00051EC100BFCF7D4FC94ED061B53EC112BDE
:103AB000FCF727FC53EC182BFCF7CAFC94ED040B25
:103AC00053EC102BFCF71DFC41EC100B53EC182BA6
:103AD00051EC100BFCF7BCFC94ED021B53EC112BCA
:103AE000FCF70FFC53EC182BFCF7B2FC94ED001B19
:103AF00053EC112BFCF705FCBDEC028B41EC100BD9
:103B000070BD10B553EC102B51EC100BFCF7F9FB0A
:103B100041EC100B10BD10B553EC112B51EC100BF8
:103B2000FCF7EFFB41EC100B10BD000000000000A3
:103B30009FED050B10B553EC102B51EC100BFCF75F
:103B400087FC41EC100B10BD0000000000000010CD
:103B500002E008C8121F08C1002AFAD17047704756
:103B6000002001E001C1121F002AFBD170470000B4
:103B70000149086070470000D400002010B541ECF6
:103B8000100BFFF7A1FC51EC100B10BD82B0CDE97A
:103B9000000121F0004001909DED000B02B051ECBE
:103BA000100B70471CB5FDF73BFEFFF79FFBFFF7BF
:103BB0004FF9FFF795F8FFF72FFAFFF727F9FFF70F
:103BC000C1F8FFF7F1F8FFF707FA012211461A488A
:103BD000FDF74CFCFFF74CF803220021012000F018
:103BE00041FD164900242346C8600120CDE90004A8
:103BF000802213A1164800F09DFD0220CDE90004AB
:103C00000023802213A1174800F094FD0420CDE981
:103C100000040023802214A1174800F08BFD05202A
:103C2000CDE900040023802214A1184800F082FD91
:103C300000F02EF8FEE70000000C0240000000201B
:103C4000546172656120696E696369616C0000008E
:103C500031320008546172656120696E696369617F
:103C60006C203200DD400008546172656120696E8D
:103C7000696369616C2034003541000854617265E4
:103C80006120696E696369616C2035000D4200082E
:103C900010B500F00DFC002010BD00002DE9F04132
:103CA000184C0F460546E6682068001D00F004FB2E
:103CB00038B9206890F82C10012088402169814390
:103CC0002161681C07D137B12168BDE8F0410E4879
:103CD000091D00F029BB20683544B54245602168C4
:103CE00005D2A06BBDE8F041091D00F005BB606B7B
:103CF000091D00F001FBA06A854200D2A562BDE863
:103D0000F0810000740000209C0300202DE9F041A8
:103D1000054600F015FB2E4CA068401CA0602068F2
:103D20002C4F10B1606940B32DE02560A0680128D8
:103D300029D1002606EB860007EB800000F0CEFAC2
:103D4000761C072EF6D323488C3000F0C7FA2148A2
:103D5000A03000F0C3FA1F48B43000F0BFFA1D488D
:103D6000C83000F0BBFA1B48DC3000F0B7FA194845
:103D70008C3060631430A06305E02068E96AC06A93
:103D8000884200D82560606A401C6062E96A0120B0
:103D9000226988401043206101EB810007EB80001D
:103DA000291D00F0C1FA00F0EBFA606900280CD080
:103DB0002068E96AC06A884207D207494FF08050FC
:103DC0000860BFF34F8FBFF36F8FBDE8F081000035
:103DD00074000020C002002004ED00E070B5114E18
:103DE000114C17E000F098FB3068B8B100F072FD9C
:103DF00000F0A6FAF068C568281D00F05DFAA0681A
:103E0000401EA0606068401E606000F0B9FA28465D
:103E100000F00CF860680028E4D170BD00F05AFD95
:103E2000F8E70000880300207400002010B5044665
:103E3000006B00F0B9FA2046BDE8104000F0B4BABB
:103E400010484FF47051420706D0C01D0D4920F0B4
:103E50000700411AC1F570510B4A00230144C2E921
:103E600000030839103A21F0070111604B600B6024
:103E70000B1AC0E9001393604FF000405360D0600C
:103E800070470000B0030020C0000020074C4FF036
:103E90008056074DFFF7A2FF20680128FAD92E604F
:103EA000BFF34F8FBFF36F8FF4E70000C002002015
:103EB00004ED00E02DE9F0479A46DDE909848146EA
:103EC0006FF00303206B03EB82021044089D20F087
:103ED0000706700707D0502080F31188BFF34F8F7B
:103EE000BFF36F8FFEE723180A5C83F834200A5C67
:103EF00012B1401C1028F6D3002784F84370072D18
:103F000000D30625E562C4E91157201D00F0F1F940
:103F100004F1180000F0EDF92461C5F107006462B6
:103F2000A061E76484F8507052464946304600F07C
:103F3000BFF82060B8F1000F01D0C8F80040BDE81C
:103F4000F087000030B5114900E011460A6882424E
:103F5000FBD34B685C18844203D140681844486026
:103F6000084643681C18944209D1084C103C246848
:103F7000A24209D052681A4442600A68126802607C
:103F8000814200D0086030BD0460F9E7C000002025
:103F90000648416B096829B1416BC968C96849681D
:103FA000816270474FF0FF31FAE700007400002093
:103FB00008484068401C4FF0500080F3118804D03E
:103FC000BFF34F8FBFF36F8FFEE7BFF34F8FBFF38A
:103FD0006F8FFEE7C80000202DE9F041054600275D
:103FE00000F09AFA314E306808B9FFF729FFF068FF
:103FF00005424BD1C5B3083568070ED005F0070060
:10400000C0F108000544680707D0502080F31188EC
:10401000BFF34F8FBFF36F8FFEE72DB370688542FC
:1040200034D82248103001460C6801E020460C4686
:104030006168A94202D221680029F7D131688C4217
:1040400024D007682168016060680837411B102987
:104050000FD96019420708D0502080F31188BFF3B0
:104060004F8FBFF36F8FFEE710E041606560FFF791
:1040700069FF61687068401A7060B268904200D24F
:10408000B060F06801430020C4E9000100F022FCA8
:10409000780707D0502080F31188BFF34F8FBFF30C
:1040A0006F8FFEE73846BDE8F0810000B0000020C9
:1040B00010B5031F4FF080741C601B1F21F001011D
:1040C0001960191F044B0B6014390A60091F6FF047
:1040D000020244380A6010BDB13F000886B000F00B
:1040E00055FB0490002003900120009001900220D5
:1040F000029069460D48FCF7EDFC0D4C4FF49675A7
:104100000A48FCF783FE05210848FCF72DFE00282D
:10411000F6D10648FCF784FDFCF77BFAC4E90401FC
:10412000294604A800F07EF9EAE70000D800002044
:10413000000000202DED048B82B000F027FB2C4EF8
:104140009FED2C8B2D4C9FED2E9B2F4DB7154FF4D3
:1041500000784FF48069009094ED060B53EC182B17
:1041600051EC100BFCF766FA03D200220221304614
:1041700012E094ED060B53EC192B51EC100BFCF7ED
:1041800071FA01D2002205E0012202213046FDF73A
:104190006DF9012239462846FDF768F9B0EE480A64
:1041A000F0EE680A53EC102B94ED080B51EC100B59
:1041B000FCF740FA02D20022414611E094ED080BD0
:1041C00053EC192B51EC100BFCF74CFA01D20022E6
:1041D00005E0012241462846FDF748F901224946FB
:1041E0002846FDF743F9C821684600F01BF9B3E7FC
:1041F000000C024000000000000024C0000000206D
:104200000000000000002440000002402DED028B61
:1042100082B000F0BBFA9FED228B234CCDF800005A
:1042200094ED0C0B53EC102B94ED120B51EC100B86
:10423000FCF708F9C4E9100153EC182BFCF712FA4B
:1042400010D394ED0C0B53EC102B94ED120B51EC9E
:10425000100BFCF7F7F89FED151B53EC112BFCF737
:10426000E9F90AD22068401C2060032807D1002207
:1042700001211048FDF7FAF801E00020206094EDDC
:10428000160BFA2184ED0A0B94ED120B684684EDAF
:104290000C0B94ED140B84ED0E0B00F0C3F8BFE78C
:1042A0009A9999999999C93F000000209A999999EA
:1042B0009999A93F000C0240D0E9013201699A6046
:1042C000D0E901235A604A68824201D182684A607B
:1042D000002202610868401E0860704700F1080172
:1042E0004FF0FF32C0E90112C1600161002101609D
:1042F000704700210161704730B50B685A1C02D02D
:1043000000F1080202E0026904E0224654682568D0
:104310009D42FAD953684B6099608A605160086188
:104320000168491C016030BD42684A6093688B6037
:1043300093685960916008610168491C0160704789
:10434000502080F31188BFF34F8FBFF36F8F0A495E
:104350004868401C486001280CD10848006810F0EB
:10436000FF0F07D0502080F31188BFF34F8FBFF3AA
:104370006F8FFEE770470000C800002004ED00E0EA
:104380000849486828B1401E486001D180F311886F
:104390007047502080F31188BFF34F8FBFF36F8FAA
:1043A000FEE70000C800002070B5002827D0144D9B
:1043B000A0F108046168E868014207D1502080F349
:1043C0001188BFF34F8FBFF36F8FFEE722683AB1BA
:1043D000502080F31188BFF34F8FBFF36F8FFEE73C
:1043E0008143616000F098F860686968084468601B
:1043F0002046FFF7A7FDBDE8704000F06BBA70BD26
:10440000B000002006484FF47A710068B0FBF1F16B
:104410004FF0E020491E4161072101617047000013
:104420006400002070B50D4604000BD095B11E4A03
:10443000106BB8B1502080F31188BFF34F8FBFF3DA
:104440006F8FFEE7502080F31188BFF34F8FBFF3CB
:104450006F8FFEE7502080F31188BFF34F8FBFF3BB
:104460006F8FFEE700F058F8D2682368591993421D
:1044700004D98B420AD9914202D807E08B42FAD97B
:10448000881A21600021FFF709FC00E0216000F09C
:1044900021FA002807D105494FF080500860BFF38A
:1044A0004F8FBFF36F8F70BD7400002004ED00E0EC
:1044B0001CB515480024CDE900402346802213A1F5
:1044C000144800F037F9012809D0401C1AD15020B7
:1044D00080F31188BFF34F8FBFF36F8FFEE750203B
:1044E00080F31188BFF34F8FBFF36F8F06484FF0F3
:1044F000FF312C38816201214161C460BDE81C405C
:1045000000F040B81CBD0000A000002049444C450C
:10451000000000008D3E00080248016B491C016349
:1045200070470000740000201448016B11B1012194
:10453000C16170470021C1610169B1FA81F1C1F126
:104540001F0101EB81020E4951F822306BB101EBE2
:10455000820101F108034A6852684A609A4201D117
:1045600052684A60D16801607047502080F311881A
:10457000BFF34F8FBFF36F8FFEE700007400002082
:10458000C00200201CB532480168324A914207D16E
:10459000502080F31188BFF34F8FBFF36F8FFEE77A
:1045A00000682C49491E884207D1502080F31188A9
:1045B000BFF34F8FBFF36F8FFEE727490878019055
:1045C000FF20087008788DF800009DF800009DF825
:1045D000002000F0F000904207D0502080F31188B6
:1045E000BFF34F8FBFF36F8FFEE79DF800001B4AAC
:1045F00000F0500010700720906005E09DF800303A
:104600005B008DF80030401E9DF800301B06F5D48D
:10461000000200F4E0609060019808700C482030BF
:10462000016841F470010160016841F0704101606E
:10463000FFF7E8FE00205060FBF7D0FD0848016856
:1046400041F040410160FBF7B9FD00201CBD0000B6
:1046500000ED00E071C20F4100E400E0C80000205E
:1046600034EF00E070B50E46050013D0D6B105FB5F
:1046700006F04830FFF7B0FC040009D004F148010F
:1046800020468EB10160C0E90F56012100F00EF8FE
:10469000204670BD502080F31188BFF34F8FBFF3C9
:1046A0006F8FFEE70020E4E70060ECE770B50D4691
:1046B000040025D0FFF744FED4E90F20216802FB57
:1046C000001161600021A1632168A1600A46D4E95C
:1046D0000F01401E00FB0121E16021464FF0FF3039
:1046E00001F8440F487004F110008DB1FFF7F6FD9A
:1046F00004F12400FFF7F2FDFFF742FE012070BD38
:10470000502080F31188BFF34F8FBFF36F8FFEE708
:1047100021690029F0D000F0A3F80028ECD004496A
:104720004FF080500860BFF34F8FBFF36F8FE3E708
:1047300004ED00E02DE9FF5F8346DDE90E87994631
:1047400016468A469000FFF747FC05001AD0542011
:10475000FFF742FC040012D025630021CDE902419D
:10476000CDE900874B46324651465846FFF7A2FB3B
:104770002046FFF7CBFA012004B0BDE8F09F2846A1
:10478000FFF712FE4FF0FF30F6E700000148C06867
:1047900070470000740000202DE9F0412E4C0027E6
:1047A000206B40B1A069401CA061E06900B1012705
:1047B0003846BDE8F081E668761CE66013D1606B90
:1047C000006838B1502080F31188BFF34F8FBFF3DA
:1047D0006F8FFEE7606BA16B6163A063206A401C72
:1047E0002062FFF7D5FBA06ADFF87080864209D30C
:1047F000606B006880B1606BC068C568686886429D
:104800000DD2A0622068C06A00EB800158F8210038
:104810000128CAD90127C8E74FF0FF30F1E7281D6A
:10482000FFF74AFDA86A18B105F11800FFF744FD2B
:10483000E86A0121226981401143216100EB800176
:1048400008EB8100291DFFF76FFDE86A2168C96A3E
:104850008842CDD30127CBE774000020C00200209E
:104860002DE9F041C068C468ACB104F118000746F6
:10487000FFF722FD154D286B0126A0B139461448DB
:10488000FFF752FDE06A2968C96A88421CD90120F5
:10489000EE61BDE8F081502080F31188BFF34F8FA7
:1048A000BFF36F8FFEE7201DFFF706FDE16A2A695F
:1048B00006FA01F01043286101EB81000449B43984
:1048C00001EB8000211DDBE70020E2E774000020FF
:1048D000740300202DE9F0472C4D00242746286B57
:1048E00038B1FFF72DFD286B401E2863286B40B1BF
:1048F00046E0502080F31188BFF34F8FBFF36F8FD6
:10490000FEE7A968224E0120D1B3A6F1B409804682
:104910003068E8B1F068C46804F11800FFF7CCFC17
:10492000201DFFF7C9FCE06A2A6908FA00F111436B
:10493000296100EB800109EB8100211DFFF7F4FCE8
:10494000E06A2968C96A8842E2D3C5F81C80DFE7BB
:104950000CB1FFF71DFBAC6944B14646FFF71CFFE5
:1049600000B1EE61641EF9D10020A861E86938B198
:104970000849012738070860BFF34F8FBFF36F8FD7
:10498000FFF7FEFC3846BDE8F08700007400002009
:104990007403002004ED00E00000000000000000AF
:1049A00001020304060708090000000001020304D5
:1049B0004FBB610567ACDD3F182D4454FB21E93F37
:1049C0009BF681D20B73EF3F182D4454FB21F93F26
:1049D000E2652F227F2B7A3C075C143326A6813CAC
:1049E000BDCBF07A8807703C075C143326A6913C57
:1049F000C4EB98999999C9BF711623FEC671BCBFC3
:104A00006D9A74AFF2B0B3BF9AFDDE522DDEADBF2A
:104A10002F6C6A2C44B4A2BF0D5555555555D53F42
:104A2000FF8300922449C23F6E204CC5CD45B73F5D
:104A3000513DD0A0660DB13FEB0D76244B7BA93FD5
:104A400011DA22E33AAD903F0000000000000000C0
:104A5000704A000800000020D8000000503B000809
:104A6000484B0008D8000020D8420000603B0008F6
:104A700001000000000000005802000000000000DB
:104A80000000000000000000000000000000000026
:104A90000000000000000000000000000000000016
:104AA0000000000000000000000000000000000006
:104AB00000000000000000000000000000000000F6
:104AC00000000000000000000000000000000000E6
:104AD000000000000024F4000100000010000000AD
:104AE00000000000000000000000000000000000C6
:104AF00000000000000000000000000000000000B6
:104B000000000000000000000000000000000000A5
:104B10000000000000000000000000000000000095
:104B20000000000000000000000000000000000085
:104B3000000000000000000000000000AAAAAAAACD
:084B400000000000000000006D
:040000050800018965
:00000001FF
