:020000040800F2
:100000005043002059020008CB280008631E000856
:10001000C928000889040008FD2B00080000000022
:100020000000000000000000000000009D0100082A
:100030009904000800000000F1010008292A0008C6
:1000400073020008730200087302000873020008BC
:1000500073020008730200089B0400087302000882
:1000600073020008A104000873020008730200086C
:10007000730200087302000873020008730200088C
:10008000730200087302000873020008730200087C
:100090008D04000873020008730200087302000850
:1000A00073020008312B0008730200087302000875
:1000B000730200087302000873020008730200084C
:1000C00073020008651E000873020008730200082E
:1000D000730200087302000873020008730200082C
:1000E000730200087302000873020008730200081C
:1000F000730200087302000873020008730200080C
:1001000073020008730200087302000873020008FB
:1001100073020008730200087302000873020008EB
:1001200073020008730200087302000873020008DB
:1001300073020008730200087302000873020008CB
:1001400073020008730200087302000873020008BB
:1001500073020008730200087302000873020008AB
:10016000730200087302000873020008730200089B
:100170007302000873020008730200080000000008
:100180007302000873020008DFF80CD000F0D8F802
:10019000004800471D2C0008504300202B4B1968D5
:1001A0000868B0E8F04F80F30988BFF36F8F4FF015
:1001B000000080F3118870470000000006480068C6
:1001C000006880F3088862B661B6BFF34F8FBFF353
:1001D0006F8F00DF00BF00BF08ED00E0DFF80C000C
:1001E000016841F470010160704700BF88ED00E0D4
:1001F000EFF30980BFF36F8F144B1A681EF0100FD6
:1002000008BF20ED108A20E9F04F106008B44FF0CD
:10021000500080F31188BFF34F8FBFF36F8F03F04F
:1002200087F84FF0000080F3118808BC196808684F
:10023000B0E8F04F1EF0100F08BFB0EC108A80F34A
:100240000988BFF36F8F704700BF00BF1800002000
:10025000EFF30580704700000648804706480047D6
:10026000FEE7FEE7FEE7FEE7FEE7FEE7FEE7FEE766
:10027000FEE7FEE7DD2A0008890100082DE9F05FAE
:100280000546002092469B46884606468146402405
:100290001BE0284641464746224600F041F85346B7
:1002A0005A46C01A914110D311461846224600F012
:1002B00028F82D1A67EB01084F462246012000213D
:1002C00000F01FF817EB00094E41201EA4F10104B5
:1002D000DFDC484631462A464346BDE8F09FD2B2AD
:1002E00001E000F8012B491EFBD270470022F6E71F
:1002F00010B513460A4604461946FFF7F0FF20469C
:1003000010BD202A04DB203A00FA02F100207047D9
:100310009140C2F1200320FA03F319439040704743
:10032000202A04DB203A21FA02F00021704721FA4A
:1003300002F3D040C2F120029140084319467047B1
:10034000064C074D06E0E06840F0010394E8070022
:1003500098471034AC42F6D3FFF71AFF7436000802
:1003600094360008454910B54A6822F440324A6084
:100370004A6843681A434A6001684A6822F48072F6
:100380004A6001684A68036942EA03224A600168D8
:100390004A6822F040724A6001684A6883681A43DA
:1003A0004A6001688A6822F400628A6001688A688B
:1003B000C3681A438A60816A6FF07062D142016833
:1003C0008A6822F070628A6001688A680CD0836A49
:1003D0001A438A6001688A6822F040528A60016884
:1003E0008A68C36A1A4301E022F040528A600168B9
:1003F0008A6822F002028A6001688A68836942EA98
:1004000043028A60016A002901684A680FD042F4F9
:1004100000624A6001684A6822F460424A600168EA
:100420004A68174C436A04EB43331A4301E022F451
:1004300000624A600168CA6A22F47002CA620168F6
:10044000CA6A838B0F4C04EB03531A43CA620168D8
:100450008A6822F400728A6001688A68036B42EA43
:1004600043228A6001688A6822F480628A60016897
:100470008A68406942EA8020886010BD00230140FC
:1004800000E0FFFF0000F0FFFEE70000014800F081
:1004900052B90000500100207047012000F034BB29
:1004A000082000F031BB704778B50024009490F824
:1004B0003C20012A19D0012280F83C200A68072339
:1004C0000568092A13D9EE680A3A02EB4202934002
:1004D0009E43EE600B788A680A3B03EB43039A4025
:1004E0000368DD682A43DA6010E0022078BD2E69D7
:1004F00002EB420293409E432E610B788A6803EB25
:1005000043039A4003681D692A431A614A681F23FE
:10051000072A13D205686E6B521E02EB82029340CB
:100520009E436E630B790A885B1E92B203EB8303D2
:100530009A4003685D6B2A435A6327E005680D2AD9
:1005400012D22E6BD21F02EB820293409E432E6387
:100550000B790A88DB1F92B203EB83039A4003688E
:100560001D6B2A431A6311E0EE6A0D3A02EB820218
:1005700093409E43EE620B790A880D3B92B203EBE7
:1005800083039A400368DD6A2A43DA62164B0568E2
:10059000144A9D4206D10D68122D03D1556845F4C9
:1005A0008005556005689D4218D10B68102B01D05D
:1005B000112B13D1536843F40003536009681029C9
:1005C0000CD10A490A4A0968B1FBF2F101EB810139
:1005D000490000E0491E00910029FBD180F83C4011
:1005E000002078BD002301400020014008000020C9
:1005F00040420F0070B504004FF0000503D0206C9E
:10060000002610B107E0012070BD666484F83C60EC
:10061000204600F019F8206CC00610D4206C20F49D
:10062000885040F0020020642046FFF79BFE66647D
:10063000206C20F0020040F00100206400E0012561
:1006400084F83C60284670BD70B586B0044614211D
:100650006846FFF74BFE3249304E23680024304A8B
:10066000143903252F48B34225D1136843F480730E
:100670001360126802F4807205920A6842F0040264
:100680000A600A6802F0040205920A6842F0010258
:100690000A600968029401F0010105910121CDE988
:1006A0000015694600F03CFA0620CDE900056946D0
:1006B00002941D4814E01D4EB34215D1136843F453
:1006C00000731360126802F4007205920A6842F027
:1006D00004020A60096801F004010591022117E093
:1006E00000F01EFA06B070BD114EB342FAD1136885
:1006F00043F480631360126802F4806205920A6812
:1007000042F004020A60096801F004010591042125
:10071000CDE9001502946946E2E70000002001409F
:10072000443802400008024000000240002101401D
:100730000022014070472DE9F05F05460068002463
:100740004669D0F804908768D0F80CB0D0F810A0B3
:10075000D0F81880F10748D0F90714D00121816042
:10076000B80703D5284600F0B5F90CE0780702D5A4
:100770004FF4006407E0380702D54FF4805402E0DC
:10078000284600F0A6F9F80516D529684FF48070C0
:100790008860B80503D5284600F09EF90CE078057E
:1007A00002D544F4005407E0380502D544F48044EF
:1007B00002E0284600F08FF9F80316D529684FF4B7
:1007C00080308860B80303D5284600F087F90CE034
:1007D000780302D544F4004407E0380302D544F41A
:1007E000803402E0284600F078F9300707D55FEA48
:1007F000CB6004D52968102044F40074C8607007E9
:100800004FF0080707D55FEA0B7004D52868C7606A
:10081000284600F059F9B00706D52868C068800757
:1008200002D0284600F051F9700607D55FEACA6089
:1008300004D52968102044F480640861B00607D507
:100840005FEA0A7004D528680761284600F03EF97F
:10085000F00606D528680069800702D0284600F017
:1008600036F9B00308D55FEAC96005D529681020BC
:100870004860284600F02CF9F00307D55FEA0970BC
:1008800004D528684760284600F029F9300446D589
:100890005FEA497040D5F00504D55FEAC87001D021
:1008A00044F00104B00504D55FEA887001D544F036
:1008B0000204700504D55FEA487001D544F00404D1
:1008C000300529D518F0700F26D008F070004028A8
:1008D00015D006DC102809D020280AD0302816D1DF
:1008E0000AE050280ED0602811D10EE044F0080430
:1008F0000DE044F010040AE044F0200407E044F066
:10090000400404E044F0800401E044F4807428686A
:10091000816921F070018161296804204860002C00
:1009200005D0686A204368622846FFF703FFBDE8E8
:10093000F09F70B5040003D094F8200010B104E0DB
:10094000012070BD204600F081F82068016821F088
:100950000201016000F0C6F90546052604E000F03A
:10096000C1F9401B0A2811D8206840688007F6D4D6
:100970002068016841F00101016000F0B3F905460B
:100980000BE000F0AFF9401B0A2806D9606A40F47A
:100990000030606284F82060D2E720684068C007B9
:1009A000EFD0207E0128206801683DD021F0800131
:1009B0000160607E01282068016838D021F0400184
:1009C0000160A07E01282068016833D021F0200159
:1009D0000160E07E0128206801682ED041F01001FE
:1009E0000160207F01282068016829D021F00801DA
:1009F0000160607F01282068016824D021F0040193
:100A00000160D4E902010843D4E904121143084308
:100A10006168491E08432168C861002060620120A6
:100A200084F82000002070BD41F08001C0E741F053
:100A30004001C5E741F02001CAE721F01001CFE7EE
:100A400041F00801D4E741F00401D9E710B586B0C0
:100A5000044614216846FFF749FC1849206888427B
:100A600029D117480021026842F000720260006834
:100A700000F00070059012481038026842F002023F
:100A80000260006800F0020005904FF44070009092
:100A90000220CDE90101032003900920049069465A
:100AA000084800F03DF800220521142000F06AFB00
:100AB000142000F05BFB06B010BD00000064004095
:100AC000403802400004024070477047704770474A
:100AD000704770477047704770477047704770475E
:100AE00090F83510022903D080214165012070471C
:100AF000052180F835100068016821F001010160CE
:100B00000020704770470000044910B50A6802428F
:100B100002D00860FFF7F6FF10BD0000143C014052
:100B20002DE9F84FDFF87CB100224FF001084FF0BB
:100B3000030A4FF00F090BF1040E00BF0B6808FA0F
:100B400002F42340A3426ED14D68022D01D0122D34
:100B50000ED1D50800EB850CDCF820505607F70EB7
:100B600009FA07F6B5430E69BE402E43CCF8206063
:100B7000066855000F790AFA05FC07F0030726EA14
:100B80000C06AF40374307604E68012E05D0022E99
:100B900003D0112E01D0122E0ED18668CF6826EA1E
:100BA0000C06AF40374387604668A6430C79C4F310
:100BB0000014944034434460C6688C6826EA0C06EE
:100BC000AC403443C4604C68E40065D5364C2568BD
:100BD00045F480452560246822F0030504F4804430
:100BE0000094324C2E19D6F8084895072F0F09FAB1
:100BF00007F5AC432E4DA84201D1002524E02D4D30
:100C0000A84201D101251FE02B4DA84201D10225A8
:100C10001AE02A4DA84201D1032515E0284DA8422B
:100C200002D1042510E037E0264DA84201D1052568
:100C30000AE0254DA84201D1062505E0234DA84232
:100C400001D1072500E00825BD402543C6F8085816
:100C5000DBF800405D464E689C43F60300D51C431C
:100C60002C60DEF8004075464E689C43B60300D504
:100C70001C432C600B4D08352C684E689C43F602D3
:100C800000D51C432C60074D0C352C684E689C43E6
:100C9000B60200D51C432C60521C102AFFF44EAF44
:100CA000BDE8F88F003C014044380240003001406C
:100CB000000002400004024000080240000C024014
:100CC000001002400014024000180240001C0240C4
:100CD00042694A40426170470AB181617047090424
:100CE000FBE7000001488068704700000C0000200E
:100CF000704770472DE9F05F02680446D2F818800B
:100D00005569566890F83E007449DFF8D0A1DFF8C5
:100D1000CCB1DFF8CC918F1C0AF17E0A0BF13E0BAF
:100D2000102812D0402810D00D425BD0B00559D504
:100D3000936920460021DB435B0700D501219269BE
:100D4000D243120648D5828947E015F0011F05D02D
:100D5000B00503D5204601F025FB10E05F48801D5B
:100D6000054205D0B00503D5606CC0B2106106E045
:100D70000D4204D0B00502D5204601F099FA18EAD8
:100D8000090F14D015EA0A0F08D0700506D53D42A8
:100D900006D12046BDE8F05F01F006BA3D421FD003
:100DA000B0051DD52046BDE8F05F01F0BCB915EADD
:100DB0000B0F08D0700506D53D4206D12046BDE890
:100DC000F05F01F06EB93D420AD0B00508D520466B
:100DD000BDE8F05F01F006B9028B92B2FFF789FF20
:100DE000BDE8F09F3D480E30054206D0B00504D561
:100DF0002046BDE8F05F01F003BB18EA090F4FF091
:100E0000280134D015EA0A0F23D0700521D53D42C0
:100E100021D194F83D302046628D002AE0D0426A0C
:100E2000541C4462046812782261428D521E42852D
:100E3000428D002AD4D1292BD2D10268536823F4E1
:100E4000806353602122026380F83D1000F015F9A1
:100E5000C6E73D42C4D0B005C2D5608D0028BFD0E2
:100E6000606A411C616221680078086131E015EA1E
:100E70000B0F22D0700520D53D4220D194F83D3093
:100E80002046648D002CABD01469426A551C456223
:100E90001470428D521E4285428D002AA0D12A2B09
:100EA0009ED10268536823F4806353602222026358
:100EB00080F83D1000F0E0F892E73D4290D0B00598
:100EC0008ED5608D00288BD01169606A421C6262E9
:100ED0000170608D401E608582E700000200010005
:100EE000040010007047000070B5040004D094F8AE
:100EF0003D00002510B106E0012070BD84F83C5093
:100F0000204600F07BF8242084F83D00206801682A
:100F100021F00101016000F01FFA33492268B0FBA3
:100F2000F1F15160314A6368934206D94FF49673E8
:100F300059434FF47A73B1FBF3F12368491C1962EA
:100F4000616891420BD84900B0FBF1F2C2F30B0289
:100F5000042A01D2042019E0B0FBF1F016E0A368E6
:100F60009BB301EBC10202EB0112B0FBF2F242F4BF
:100F70008042120530D04BB301EBC10202EB0111EC
:100F8000B0FBF1F040F4804040F400402168C861BB
:100F9000D4E90701084321680860D4E90310084335
:100FA00021688860D4E9050108432168C860206889
:100FB000016841F0010101602564202084F83D00B2
:100FC000256384F83E50002070BD00E006E001EB90
:100FD0004102B0FBF2F2CCE70120D7E701EB41017F
:100FE000B0FBF1F0D0E7000040420F00A086010006
:100FF00070477047704770477047000010B586B063
:10100000044614216846FFF771F9184920688842A0
:1010100029D11748016841F0020101600068694662
:1010200000F0020005904FF4406000901220019003
:101030000120029003200390042004900D48FFF744
:101040006FFD0B481030016841F4800101600068B9
:10105000002200F4800005901146212000F092F853
:10106000212000F083F806B010BD000000580040B9
:1010700030380240000402407047704702488168DF
:1010800002781144816070470C0000200B4810B5B5
:10109000016841F400710160016841F48061016000
:1010A000016841F480710160032000F08BF800209A
:1010B00000F006F800F03EF8002010BD003C0240B1
:1010C00010B5014688B00022192000F05BF8192005
:1010D00000F04CF813480024016841F00101016060
:1010E000006805A900F001000690684600F014F9B8
:1010F00000F042F90C494000B0FBF1F10C480B4AFA
:10110000491E026040F2E732C0E90324C0E901143D
:1011100000F0BEFD10B1012008B010BD044800F081
:10112000D3FDF9E74438024040420F00000001407F
:10113000240200200C4882B0016841F48041016023
:10114000006800F4804000900748001F016841F0EB
:10115000805101600068002200F0805000900F2153
:10116000901E02B000F00EB84438024000F01F029A
:10117000012191404009800000F1E020C0F80011F9
:1011800070470000F0B40E4B1B680C46C3F30223FB
:10119000C3F10705042D00D90425191D072901D223
:1011A000002300E0DB1E012606FA05F1491E21405E
:1011B00099409E40761E16403143F0BC01F086BB3C
:1011C0000CED00E0064900F0070208684FF6FF0347
:1011D000184040EA0220034A1043086070470000AC
:1011E0000CED00E00000FA052DE9F0470E46050081
:1011F00065D0DFF81481D8F80000F7B200F00F00D6
:10120000B04207D288F80070D8F8000000F00F0054
:10121000B04254D128683D4C810712D5400703D510
:10122000206840F4E05020602878000703D520684B
:1012300040F4604020602068A96820F0F000084376
:1012400020602878C0072DD0304968680839012807
:1012500012D0022813D0032811D009688907002969
:101260002DDA216821F0030101432160FFF73AFDE7
:10127000814641F2883A0EE009688903EFE7096880
:101280008901ECE7FFF72EFDA0EB0901514502D9DA
:101290000320BDE8F0872068696800F00C00B0EB1F
:1012A000810FEFD1D8F80010404601F00F01B14294
:1012B00007D90770006800F00F00B04201D001208C
:1012C000E7E72878400705D52068E96820F4E05072
:1012D000084320602878000706D52068296920F493
:1012E000604040EAC100206000F056F82168084ADA
:1012F000C1F30311515CC840064908600020FFF7A4
:10130000DFFE0020C5E70000003C02400838024034
:101310005C360008080000200F2202600C4A1368A7
:1013200003F003034360136803F0F0038360136862
:1013300003F4E053C36012684FF4E05303EAD202AF
:1013400002610448006800F00F0008607047000068
:1013500008380240003C024004480549006809681A
:10136000044AC1F38221515CC84070470800002044
:10137000083802406C3600080448054900680968CE
:10138000044AC1F34231515CC84070470800002054
:10139000083802406C360008154810B5006810F097
:1013A0000C02144813D04110042A0FD0082A0ED181
:1013B0000F4C241F2268236802F03F025B0207D50E
:1013C0002068C0F38810A0FB010106E0084610BDAC
:1013D0002168C1F38811A1FB00010023FEF74EFF35
:1013E0002168C1F30141491C4900B0FBF1F010BD77
:1013F000083802400024F4002DE9F84F050076D0AB
:101400002878DFF8F8B2BE4CC00749D0DBF80010EE
:101410005846C1F38101012908D00068C0F381005A
:1014200002280AD1201D0068400206D520688003EA
:1014300036D568680028E2D032E06868B0F5803FB1
:1014400010D0B0F5A02F206810D020F4803020609C
:10145000206820F4802020606868A0B1FFF742FC7B
:1014600006460CE0206840F48030F4E740F4802029
:101470002060F7E7FFF736FC801B642873D82068EC
:101480008003F7D50CE0FFF72DFC064605E000BF12
:10149000FFF728FC801B6428F0D820688003F7D46D
:1014A0002878DFF8608280074FF000093ED5DBF82E
:1014B0000010584611F00C0F09D00068C0F38100ED
:1014C00002280BD18D48001F0068400206D4206816
:1014D000800715D5E868012809D111E0E868B8B19E
:1014E0000120C8F80000FFF7FDFB064605E002E119
:1014F000FFF7F8FB801B0228C0D820688007F7D5CB
:101500002068296920F0F80040EAC10020600DE061
:10151000C8F80090FFF7E6FB064604E0FFF7E2FBA1
:10152000801B02281FD820688007F7D4287800077E
:1015300022D5724E744869696C3671B1012101601F
:10154000FFF7D0FB074604E0FFF7CCFBC01B0228E7
:1015500009D830688007F7D50EE0C0F80090FFF793
:10156000C1FB074605E083E0FFF7BCFBC01B022878
:101570007ED830688007F7D42878400768D5DFF830
:101580007CA100270AF1380ADAF80000C0000BD469
:10159000DAF8001041F08051CAF80010DAF80000C3
:1015A000012700F080500090584E3068C00510D4DC
:1015B000306840F480703060FFF794FB009005E0E5
:1015C000FFF790FB0099401A022851D83068C005F7
:1015D000F6D54A4EA868683601280FD0052830682D
:1015E00010D020F001003060306820F0040030603E
:1015F000A868B8B1FFF776FB00900FE0306840F0C4
:101600000100F4E740F004003060F7E7FFF76AFB01
:101610000099411A41F28830814264D830688007CD
:10162000F4D50EE0FFF75EFB009007E0FFF75AFBF2
:101630000099411A41F28830814254D830688007BD
:10164000F4D42FB1DAF8001021F08051CAF800105C
:10165000A869C0B3DBF80010C1F3810102294AD0A8
:101660000228484607D0C8F86000FFF73BFB00E0BF
:1016700039E005463AE04746C8F86000FFF732FB1C
:10168000064604E0FFF72EFB801B02282BD82068BB
:101690008001F7D4D5E907010843A96A1C4A490823
:1016A00002EB01416A6A41EA8211084395F82C1065
:1016B00040EA01611148001F016001203866FFF710
:1016C00011FB054605E014E0FFF70CFB401B022868
:1016D00009D820688001F7D50BE000BFFFF702FBB7
:1016E000401B022802D90320BDE8F88F2068800142
:1016F000F4D40020F8E70120F6E7000008380240A3
:101700000038024000004742800E4742007000400F
:101710000000FFFF70B5040005D00025A56294F815
:10172000510010B106E0012070BD84F850502046F1
:1017300000F030F8022084F851002068016821F0A0
:1017400040010160D4E901010843D4E903121143C7
:10175000084361690843218B01F400710843E16982
:101760000843216A0843A16A084321680860A06908
:10177000042101EA1040616A08432168486020683A
:10178000C16921F40061C1616565012084F85100DF
:10179000002070BD10B586B0044614216846FEF7DF
:1017A000A5FD13492068884220D112480021026813
:1017B00042F480520260006800F4805005900D48A9
:1017C0001438026842F001020260006800F0010073
:1017D0000590E02000900220CDE901010320039054
:1017E0000520049069460448FFF79AF906B010BD39
:1017F0000030014044380240000002402DE9F84F1B
:10180000044640680026984617460D464FF00409E6
:10181000B0F5827F01D1A06890B194F85000012802
:1018200019D04FF0010B84F850B0FFF75BFA00902D
:1018300094F851004FF0000A01280ED002267FE0F4
:1018400084F8519013460A462046CDF8008000F0F7
:1018500031F9BDE8F88F0220FBE7002D6FD0002F93
:101860006DD084F85190C4F854A0A563A787E7878A
:10187000C4F830A0A4F834A0A4F836A0C4F840A05E
:10188000C4F844A0A0684FF40047B84204D12068CF
:10189000016821F48041016020680168490603D491
:1018A000016841F040010160E068B8B133E02068B0
:1018B0008168C90706D0007B05F8010BE08F401E48
:1018C000E0870BE0B8F1000F23D0B8F1FF3F05D05F
:1018D000FFF708FA0099411A41451AD2E08F002813
:1018E000E5D11BE020688168C90706D0C06825F8EB
:1018F000020BE08F401EE0870DE0B8F1000F08D02A
:10190000B8F1FF3F07D0FFF7EDF90099411A4145C3
:1019100001D3032614E0E08F0028E3D16068B0F51E
:10192000827F0AD1A068B84202D0B0F5806F04D19E
:101930002068016821F040010160606D00B101265E
:1019400084F851B084F850A0304682E72DE9F84F72
:10195000044690F850000026994617460D46012887
:101960000DD04FF0010B84F850B0FFF7BBF9804663
:1019700094F85100B246012804D0022694E00220D7
:10198000BDE8F88F002D7BD0002F79D0032084F89C
:101990005100C4F854A02563A786E786C4F838A090
:1019A000A4F83CA0A4F83EA0C4F844A0C4F840A009
:1019B000A068B0F5004F04D12068016841F480416F
:1019C000016020680168490603D4016841F04001C4
:1019D0000160E068B0F5006F606804D030B3E08E5D
:1019E000012823D03EE010B1E08E01281AD135F84D
:1019F000021B206805E020688168890706D535F854
:101A0000021BC160E08E401EE0860BE0B9F1000FC2
:101A100034D0B9F1FF3F05D0FFF764F9A0EB08011E
:101A200049452BD2E08E0028E5D11EE0216815F84B
:101A3000010B087306E020688168890706D515F850
:101A4000011B0173E08E401EE0860BE0B9F1000F30
:101A500014D0B9F1FF3F05D0FFF744F9A0EB08011E
:101A600049450BD2E08E0028E5D14B4601220221E8
:101A70002046CDF8008000F049FF10B1032613E0A6
:101A800011E042464946204600F030FF18B10126D9
:101A90002020606508E0A06818B92068C1688068E7
:101AA0000090606D00B1012684F851B084F850A018
:101AB000304665E72DE9F84F044690F850000026BF
:101AC0000A9F9A4693460D464FF0010801280ED012
:101AD000012084F85000FFF705F9814694F8510081
:101AE000616801280CD0B1F5827F07D102E00220A5
:101AF000BDE8F88FA16809B9042801D00226BDE02D
:101B000055B1BBF1000F07D0BAF1000F04D094F823
:101B10005100012802D004E00126AFE0052084F83E
:101B2000510000206065C4F838B0A4F83EA0A4F8C5
:101B30003CA02563A4F836A0A4F834A02064606417
:101B400020680168490603D4016841F04001016042
:101B5000E068B0F5006F606804D0E8B3E08E01285B
:101B60003BD06AE010B1E08E01282ED1216835F813
:101B7000020BC860E08E401EE08626E0B8F1000F40
:101B80000DD0E08E58B120688168890707D535F8F7
:101B9000021BC160E08E401EE0864FF00008E08F1F
:101BA00058B120688168C90707D0C0682BF8020BBC
:101BB000E08F401EE0874FF00108781C05D0FFF74A
:101BC00091F8A0EB0900B84246D2E08E0028D5D1AA
:101BD000E08F0028D2D136E0FFE7216815F8010B2D
:101BE0000873E08E401EE08627E000BFB8F1000FCA
:101BF0000DD0E08E58B120688168890707D515F8A7
:101C0000011B0173E08E401EE0864FF00008E08F5C
:101C100058B120688168C90707D0C0680BF8010B6C
:101C2000E08F401EE0874FF00108781C05D0FFF7D9
:101C300059F8A0EB0900B8420ED2E08E0028D5D1A9
:101C4000E08F0028D2D13B46012202212046CDF868
:101C5000009000F05BFE08B103260FE04A463946CB
:101C6000204600F043FE18B101262020606505E003
:101C7000A06818B92068C16880680090012084F8C5
:101C80005100002084F85000304631E7704770471B
:101C900010B5040003D094F8390010B107E001201A
:101CA00010BD002084F83800204600F00CF8022017
:101CB00084F83900211D206800F040FF012084F8DD
:101CC0003900002010BD70470168CA6842F0010267
:101CD000CA600068016841F001010160002070479E
:101CE000704770B50446006801694FF00005C943AC
:101CF000890715D4C168C943890711D4E91E016158
:101D000001202076206880698007204602D0FFF7F6
:101D1000E7FF04E000F098F8204600F096F82576FA
:101D200020680169C943490717D4C168C9434907F5
:101D300013D46FF0040101610220207620688069CD
:101D400010F4407F204602D0FFF7CAFF04E000F005
:101D50007BF8204600F079F8257620680169C943B0
:101D6000090716D4C168C943090712D46FF00801E6
:101D70000161042020762068C0698007204602D0D7
:101D8000FFF7AEFF04E000F05FF8204600F05DF8DA
:101D9000257620680169C943C90617D4C168C943BB
:101DA000C90613D46FF01001016108202076206865
:101DB000C06910F4407F204602D0FFF791FF04E095
:101DC00000F042F8204600F040F8257620680169CE
:101DD000C943C90708D1C168C943C90704D1891ECD
:101DE0000161204600F032F820680169C943090604
:101DF00009D4C168C943090605D46FF080010161A7
:101E00002046FFF743FF20680169C943490609D40A
:101E1000C168C943490605D46FF0400101612046FD
:101E200000F01EF820680169C94389060BD4C16817
:101E3000C943890607D46FF0200101612046BDE83F
:101E40007040FFF724BF70BD7047704700680349BA
:101E5000884201D1FFF712B970470000000001402D
:101E60007047FEE70148FEF745BF000078010020FB
:101E700010B5806B01680A6822F480620A60002154
:101E80004185426B1165826B116590F83D302022CF
:101E9000602B80F83D2080F83E1007D001680A686A
:101EA00022F001020A60FFF71DF810BD016401680D
:101EB0000A6822F001020A60FEF71AFF10BD000056
:101EC00070B590F83D1004460025202600682929A9
:101ED0002DD02A292BD094F83D10602904D04168D8
:101EE000090501D484F83D60256384F83E500168FB
:101EF00021F40061016020684168090537D5416817
:101F000021F400614160606B90F835203349012A6B
:101F100012D00165606BFEF7E3FD38B320680168FD
:101F200021F00101016084F83D60606B1CE02563D5
:101F3000282184F83D10DAE7A06B0165A06BFEF75D
:101F4000CFFD98B120684169C943490604D40169AD
:101F5000606A421C626201702068016821F0010120
:101F6000016084F83D60A06B016D88470FE094F834
:101F70003D1060291DD04169C943490604D4016957
:101F8000606A421C626201702046FEF7ABFF94F863
:101F90003D0028280CD1206C400709D51048E0628C
:101FA000256384F83D6084F83E502046FFF720F812
:101FB00070BD84F83D6025644169C943490604D475
:101FC0000169606A421C626201702068016821F048
:101FD000010101602046FEF78BFED8E7711E000864
:101FE0000000FFFF10B5C26A438D0168042B06D0C4
:101FF000438D032B08D0438D022B19D00EE04A6885
:1020000022F480624A6008E04A6822F480624A60F2
:1020100001680A6822F480620A6001680A69416AFC
:102020004B1C43620A70418D491E4185002010BD42
:10203000022A2AD0012A28D00A6842F400720A60D3
:1020400001680A69416A4B1C43620A70418D491E4E
:10205000418501680A69416A4B1C43620A70418DDF
:10206000491E418501684A6822F440724A60202175
:1020700080F83D100021016390F83E2080F83E106A
:10208000402A0BD0FEF7B5FFD0E70A6822F4806241
:102090000A6001680A6842F48072D0E7FEF7ABFF7D
:1020A000C4E710B590F83D10222937D1418D03299E
:1020B00011D901680A69416A4B1C43620A70418D5B
:1020C000491E4185418D032928D10068416821F4CA
:1020D0008061416022E0012900D0F9B901680A68F5
:1020E00022F480620A6001684A6822F4E0624A6071
:1020F00001680A69416A4B1C43620A70418D491E9E
:102100004185202180F83D100021016390F83E2098
:1021100080F83E10402A03D0FEF76BFF002010BD70
:10212000FEF769FFFAE710B5C26A90F83D10212961
:1021300021D1418D49B1416A4A1C42620268097845
:102140001161418D491E418515E020230021042A9B
:1021500013D0082A11D012F5803F0ED002685468BF
:1021600024F4E06454601122026380F83E1080F889
:102170003D30FEF73FFF002010BD0268546824F494
:10218000E06454600268146844F4007414600163ED
:1021900080F83D3090F83E2080F83E10402AE8D18B
:1021A000FEF72AFFE7E7000010B590F83D1090F821
:1021B0003E30C26A048D24B1212934D0402B30D066
:1021C00074E02129FAD120230021042A13D0082AFF
:1021D00011D012F5803F0ED00268546824F4E064F8
:1021E00054601122026380F83E1080F83D3000BF39
:1021F000FEF700FF5AE00268546824F4E06454607B
:102200000268146844F400741460016380F83D307F
:1022100090F83E2080F83E10402AE9D1FEF7ECFE0F
:1022200044E0222942D1418D21B190F83E1040294D
:1022300006D032E00068416821F48061416035E0F9
:10224000016D31B1016D012911D0016D022915D047
:102250002CE0C16C0129816C02D0C1F3072108E098
:102260000268C9B21161016D891C01651EE0816CB3
:10227000C9B202681161016D491CF6E790F83D1082
:10228000222904D090F83D10212906D00EE00068E4
:10229000016841F48071016008E0416A4A1C4262B1
:1022A000026809781161418D491E4185002010BDE9
:1022B00078B590F83E50C26A036B90F83D600024F8
:1022C0000168222E06D1066D0EB9402D02D0056D93
:1022D00025B107E048698869009058E00569B5F5BF
:1022E000404F08D0458D55B3458D012D0ED0428D00
:1022F000022A37D04DE04A698A6900920A6842F49E
:1023000080720A60016D491C016540E012F5803F52
:1023100009D0042A20D0082A1ED0122B1CD0C26A51
:10232000022A08D113E00A6822F480620A60016878
:102330004A68120503D50A6822F480620AE04A69F5
:102340008A6900920A6842F400720A601EE00A6814
:1023500042F480620A6015E00A6822F480620A6032
:102360000168ECE7C26A022A13D00A6822F480628C
:102370000A6001680A6842F400620A6001684A68FB
:1023800012050AD401684A69896900910465002030
:1023900078BD0A6842F48062EFE74A6842F48052EE
:1023A0004A60EFE790F83E10402909D00169B1F585
:1023B000804F10D0016D99B1016D012915D01CE03D
:1023C000016D19B9416C01F0FE0114E0416CC9B214
:1023D00041F001010FE090F83D102129F6D1F1E71D
:1023E000416CF02201F4407103E0416CF12201F4F0
:1023F000407142EAD111006801610020704700007D
:1024000038B590F83D2001684B6823F4E0634B60D9
:10241000036800215C6900941C6844F001041C609E
:1024200003681C6824F480641C6003685C682405ED
:102430000BD590F83D40222C2BD090F83D402A2C13
:1024400027D0446B246864684485448DE4B15C699A
:10245000E443640707D41C69436A5D1C45621C7031
:10246000438D5B1E438503685C69E443640607D4BF
:102470001C69436A5D1C45621C70438D5B1E43856D
:10248000036C43F004030364036C23B1FFF718FDEE
:102490001FE0846BD6E72023282A09D02A2A07D0F8
:1024A000292A05D0046B222C0CD0222A0AD010E055
:1024B000094AC262016380F83D3080F83E10FEF7A1
:1024C00097FD06E0016380F83D3080F83E10FEF78E
:1024D000D3FD002038BD00000000FFFF70B5184D8F
:1024E000002208212846FEF7F7FB164C2020322355
:1024F000207017206070022221461348FFF726FA49
:10250000012208212846FEF7E7FB00220821284681
:10251000FEF7E2FBA02020703223012221460A4868
:10252000FFF714FA32230122A11C0748FFF766F9CE
:102530002846BDE8704001220821FEF7CDBB00000F
:102540000010024004000020CC0100201FB5002133
:102550001548009101910291124A039102604FF4D3
:1025600080324260016112028161826001620F4A21
:10257000C0E90A210124C160C46144610163FEF71E
:1025800039F808B1FDF78FFF02200094CDE9014032
:1025900069460548FDF788FF002801D0FDF783FF55
:1025A0001FBD000000200140780000200100000F46
:1025B0007FB50024154800940194029412490394B5
:1025C00001604FF48031416004618461490204621A
:1025D00081600F49C0E90A140125C460C5614561E5
:1025E0000463FEF707F808B1FDF75DFF0B20CDE9A6
:1025F0000005694602940548FDF756FF002801D002
:10260000FDF751FF7FBD000000210140C000002008
:102610000100000F7FB50024154800940194029436
:102620001249039401604FF4803141600461846178
:102630004902046281600F49C0E90A140125C4609F
:10264000C56145610463FDF7D5FF08B1FDF72BFFB8
:102650000C20CDE90005694602940548FDF724FFEA
:10266000002801D0FDF71FFF7FBD000000220140C0
:10267000080100200100000F0F4810B50D4901604E
:102680001521416000214FF430228160C0E903121E
:102690004FF440124261017641768176C17601772E
:1026A0004177FEF746F9002803D0BDE81040FDF75A
:1026B000FABE10BD00640040500100202DE9F04F2B
:1026C00087B014216846FDF711FE574800240168C1
:1026D00041F010010160016801F0100105910168ED
:1026E00041F080010160016801F0800105910168FD
:1026F00041F004010160016801F0040105910168E5
:1027000041F001010160016801F0010105910168DA
:1027100041F002010160016801F0020105910168C8
:1027200041F0080101600068DFF800A100F0080036
:102730000590002208215046FEF7CEFADFF8F0B0EF
:102740004FF20347002239465846FEF7C5FA4FF4C8
:10275000F858002241463748FEF7BEFA4FF4C059F8
:10276000002249463448FEF7B7FA082000900125B8
:10277000CDE90154694650460394FEF7D1F92F4E36
:102780000095CDE9016469462A48FEF7C9F907209A
:10279000CDE9000469462A480294FEF7C1F9802079
:1027A000CDE90004694650460294FEF7B9F9009756
:1027B000CDE90154694658460394FEF7B1F9E802A1
:1027C000CDE90004694658460294FEF7A9F9CDF810
:1027D0000080CDE90154694616480394FEF7A0F93C
:1027E000CDF80090CDE90154694613480394FEF7F3
:1027F00097F91820CDE90006694602941048FEF7C3
:102800008FF9002211460620FEF7BCFC0620FEF7D9
:10281000ADFC002211460920FEF7B4FC0920FEF7AA
:10282000A5FC07B0BDE8F08F303802400010024030
:10283000000C02400000024000080240000011109D
:10284000000402400D4810B50B4901600C4941607D
:1028500000214FF480428160C0E90312416181612F
:10286000C1610162FEF740FB002803D0BDE81040C3
:10287000FDF719BE10BD000000580040780100208F
:10288000A08601000F4810B50D4901604FF4827118
:10289000416000218160C1604FF400720161C0E9B4
:1028A0000512C1610162416281620A21C162FEF7C3
:1028B00031FF002803D0BDE81040FDF7F4BD10BD86
:1028C00000300140CC010020FEE770470907090EE7
:1028D000002806DA00F00F0000F1E02080F8141D57
:1028E000704700F1E02080F80014704738B50B46BF
:1028F000009204460022802100F008F8002804D04D
:10290000606D40F020006065032038BD2DE9F04186
:102910001D4617460E460446DDF8188035E0681C53
:1029200033D02DB1FEF7DEF9A0EB0800A8422CD37E
:102930002068416821F0E00141606068B0F5827F65
:102940000BD1A068B0F5004F02D0B0F5806F04D174
:102950002068016821F040010160A06AB0F5005FC5
:102960000AD1206801684DF6FF72114001602068AD
:10297000016841F400510160012084F851000020F9
:1029800084F850000320BDE8F0812068806836EAB2
:10299000000004D00020B842C1D10020F3E701209C
:1029A000F9E7000008B500F08DFD1D4C4FF480578D
:1029B0000090002239462046FEF78EF97D00002265
:1029C00029462046FEF788F96E000022314620464F
:1029D000FEF782F94FF40048012241462046FEF7F7
:1029E0007BF9BA46A94647460E4D4FF496785146B4
:1029F0002868401C28602046FEF76AF949462046B0
:102A0000FEF766F931462046FEF762F93946204660
:102A1000FEF75EF94146684600F008FCE7E7000073
:102A2000000C02400000002010B5502080F31188F7
:102A3000BFF34F8FBFF36F8F00F04AFD18B1044909
:102A40004FF080500860002080F3118810BD000016
:102A500004ED00E030B593B030216846FDF746FC48
:102A600014210CA8FDF742FC1A480025016841F02A
:102A700080510160006800F0805011901648016894
:102A800041F4804101600068022400F4804011900C
:102A900001200090000401908001CDE9064008204B
:102AA00008904FF4A870CDE9090407200B90684600
:102AB000FEF7A2FC0CA90F2081E831004FF4A050D2
:102AC0000F90E002109005210CA8FEF78DFB13B0CB
:102AD00030BD0000403802400070004010480168DE
:102AE00041F4700101600F48016841F0010101608B
:102AF0000C4A00210832116002680B4B1A40026038
:102B0000031D0A4A1A60026822F480220260054806
:102B10000C30016002495806803908607047000097
:102B200088ED00E000380240FFFFF6FE1030002480
:102B30000148FFF7D6B8000024020020F0B5026873
:102B4000234B244D244E254F254C4FF0804C98426A
:102B500009D0604507D0A84205D0B04203D0B842A2
:102B600001D0A04204D122F0700E4A6842EA0E025F
:102B700098421BD0604519D0A84217D0B04215D05A
:102B8000B84213D0A04211D0164DA8420ED0164D17
:102B9000A8420BD0154DA84208D0154DA84205D02B
:102BA000144DA84202D0144DA84203D122F440751E
:102BB000CA682A4302608A68C2620A6882629842CE
:102BC00001D0A04201D10969016301214161F0BD39
:102BD000000001400004004000080040000C0040DC
:102BE0000004014000400140004401400048014011
:102BF00000180040001C004000200040FEE702E0FA
:102C000008C8121F08C1002AFAD170477047002077
:102C100001E001C1121F002AFBD170471CB5FEF76D
:102C200035FAFFF717FFFFF749FDFFF78FFCFFF7B6
:102C300029FEFFF721FDFFF7BBFCFFF7EBFCFFF7D9
:102C400001FEFFF74BFC00210120CDE900010B46FE
:102C5000802203A1064800F009FC00F00BF8FEE713
:102C6000546172656120696E696369616C0000007E
:102C7000A529000810B500F01FFB002010BD0000C2
:102C80002DE9F041184C0F460546E6682068001D06
:102C900000F016FA38B9206890F82C10012088400E
:102CA000216981432161681C07D137B12168BDE8E2
:102CB000F0410E48091D00F03BBA20683544B5428A
:102CC0004560216805D2A06BBDE8F041091D00F008
:102CD00017BA606B091D00F013FAA06A854200D292
:102CE000A562BDE8F0810000180000203C03002030
:102CF0002DE9F041054600F027FA2E4CA068401C53
:102D0000A06020682C4F10B1606940B32DE02560B1
:102D1000A068012829D1002606EB860007EB800079
:102D200000F0E0F9761C072EF6D323488C3000F033
:102D3000D9F92148A03000F0D5F91F48B43000F08F
:102D4000D1F91D48C83000F0CDF91B48DC3000F047
:102D5000C9F919488C3060631430A06305E020681D
:102D6000E96AC06A884200D82560606A401C6062D7
:102D7000E96A0120226988401043206101EB81004B
:102D800007EB8000291D00F0D3F900F0FDF9606920
:102D900000280CD02068E96AC06A884207D2074937
:102DA0004FF080500860BFF34F8FBFF36F8FBDE8C7
:102DB000F0810000180000206002002004ED00E017
:102DC00070B5114E114C17E000F0AAFA3068B8B196
:102DD00000F0E2FB00F0B8F9F068C568281D00F0CB
:102DE0006FF9A068401EA0606068401E606000F03F
:102DF000CBF9284600F00CF860680028E4D170BDDB
:102E000000F0CAFBF8E700002803002018000020AB
:102E100010B50446006B00F0CBF92046BDE8104029
:102E200000F0C6B910484FF47051420706D0C01DDB
:102E30000D4920F00700411AC1F570510B4A0023DB
:102E40000144C2E900030839103A21F0070111607A
:102E50004B600B600B1AC0E9001393604FF0004009
:102E60005360D060704700005003002064000020D1
:102E7000074C4FF08056074DFFF7A2FF206801284E
:102E8000FAD92E60BFF34F8FBFF36F8FF4E70000C6
:102E90006002002004ED00E02DE9F0479A46DDE9EC
:102EA000098481466FF00303206B03EB8202104418
:102EB000089D20F00706700707D0502080F3118886
:102EC000BFF34F8FBFF36F8FFEE723180A5C83F8C1
:102ED00034200A5C12B1401C1028F6D3002784F875
:102EE0004370072D00D30625E562C4E91157201D64
:102EF00000F003F904F1180000F0FFF82461C5F1B7
:102F000007006462A061E76484F850705246494645
:102F1000304600F0BFF82060B8F1000F01D0C8F8CB
:102F20000040BDE8F087000030B5114900E01146CF
:102F30000A688242FBD34B685C18844203D1406824
:102F400018444860084643681C18944209D1084C4C
:102F5000103C2468A24209D052681A4442600A68B0
:102F600012680260814200D0086030BD0460F9E759
:102F7000640000200648416B096829B1416BC968AB
:102F8000C9684968816270474FF0FF31FAE7000075
:102F90001800002008484068401C4FF0500080F3A3
:102FA000118804D0BFF34F8FBFF36F8FFEE7BFF3DD
:102FB0004F8FBFF36F8FFEE76C0000202DE9F041CB
:102FC0000546002700F0ACF9314E306808B9FFF72C
:102FD00029FFF06805424BD1C5B3083568070ED00C
:102FE00005F00700C0F108000544680707D050202D
:102FF00080F31188BFF34F8FBFF36F8FFEE72DB3C0
:103000007068854234D82248103001460C6801E0CF
:1030100020460C466168A94202D221680029F7D1F6
:1030200031688C4224D007682168016060680837E5
:10303000411B10290FD96019420708D0502080F396
:103040001188BFF34F8FBFF36F8FFEE710E0416031
:103050006560FFF769FF61687068401A7060B26868
:10306000904200D2B060F06801430020C4E9000142
:1030700000F092FA780707D0502080F31188BFF350
:103080004F8FBFF36F8FFEE73846BDE8F081000039
:103090005400002010B5031F4FF080741C601B1FEC
:1030A00021F001011960191F044B0B6014390A60EB
:1030B000091F6FF0020244380A6010BD952F000806
:1030C000D0E9013201699A60D0E901235A604A6867
:1030D000824201D182684A60002202610868401E73
:1030E0000860704700F108014FF0FF32C0E901129B
:1030F000C1600161002101607047002101617047DA
:1031000030B50B685A1C02D000F1080202E00269D7
:1031100004E02246546825689D42FAD953684B6002
:1031200099608A60516008610168491C016030BD86
:1031300042684A6093688B60936859609160086147
:103140000168491C01607047502080F31188BFF36B
:103150004F8FBFF36F8F0A494868401C48600128B1
:103160000CD10848006810F0FF0F07D0502080F302
:103170001188BFF34F8FBFF36F8FFEE770470000DA
:103180006C00002004ED00E00849486828B1401EAA
:10319000486001D180F311887047502080F3118876
:1031A000BFF34F8FBFF36F8FFEE700006C0000206E
:1031B00070B5002827D0144DA0F108046168E868B4
:1031C000014207D1502080F31188BFF34F8FBFF326
:1031D0006F8FFEE722683AB1502080F31188BFF369
:1031E0004F8FBFF36F8FFEE78143616000F098F867
:1031F00060686968084468602046FFF795FEBDE88E
:10320000704000F0C9B970BD5400002006484FF46A
:103210007A710068B0FBF1F14FF0E020491E416186
:1032200007210161704700000800002070B50D46BD
:1032300004000BD095B11E4A106BB8B1502080F33A
:103240001188BFF34F8FBFF36F8FFEE7502080F3DD
:103250001188BFF34F8FBFF36F8FFEE7502080F3CD
:103260001188BFF34F8FBFF36F8FFEE700F058F860
:10327000D26823685919934204D98B420AD99142E2
:1032800002D807E08B42FAD9881A21600021FFF7A3
:10329000F7FC00E0216000F07FF9002807D1054924
:1032A0004FF080500860BFF34F8FBFF36F8F70BD3A
:1032B0001800002004ED00E01CB515480024CDE9FD
:1032C00000402346802213A1144800F0CFF80128C3
:1032D00009D0401C1AD1502080F31188BFF34F8FC2
:1032E000BFF36F8FFEE7502080F31188BFF34F8F3D
:1032F000BFF36F8F06484FF0FF312C3881620121F8
:103300004161C460BDE81C4000F040B81CBD000035
:103310004400002049444C4500000000712E000884
:103320000248016B491C016370470000180000202F
:103330001448016B11B10121C16170470021C161C5
:103340000169B1FA81F1C1F11F0101EB81020E495E
:1033500051F822306BB101EB820101F108034A6898
:1033600052684A609A4201D152684A60D16801604D
:103370007047502080F31188BFF34F8FBFF36F8FDA
:10338000FEE7000018000020600200201CB5324853
:103390000168324A914207D1502080F31188BFF36F
:1033A0004F8FBFF36F8FFEE700682C49491E88429C
:1033B00007D1502080F31188BFF34F8FBFF36F8F79
:1033C000FEE7274908780190FF20087008788DF8FB
:1033D00000009DF800009DF8002000F0F0009042F1
:1033E00007D0502080F31188BFF34F8FBFF36F8F4A
:1033F000FEE79DF800001B4A00F050001070072007
:10340000906005E09DF800305B008DF80030401EB4
:103410009DF800301B06F5D4000200F4E0609060D7
:10342000019808700C482030016841F47001016077
:10343000016841F070410160FFF7E8FE0020506034
:10344000FCF7CCFE0848016841F040410160FCF700
:10345000B5FE00201CBD000000ED00E071C20F4170
:1034600000E400E06C00002034EF00E02DE9FF5F95
:103470008346DDE90E87994616468A469000FFF797
:103480009DFD05001AD05420FFF798FD040012D0CE
:1034900025630021CDE90241CDE900874B46324644
:1034A00051465846FFF7F8FC2046FFF721FC012063
:1034B00004B0BDE8F09F2846FFF77AFE4FF0FF30DA
:1034C000F6E700000148C0687047000018000020BF
:1034D0002DE9F0412E4C0027206B40B1A069401C23
:1034E000A061E06900B101273846BDE8F081E668D7
:1034F000761CE66013D1606B006838B1502080F311
:103500001188BFF34F8FBFF36F8FFEE7606BA16B26
:103510006163A063206A401C2062FFF72BFDA06A54
:10352000DFF87080864209D3606B006880B1606B01
:10353000C068C568686886420DD2A0622068C06A0B
:1035400000EB800158F821000128CAD90127C8E7FB
:103550004FF0FF30F1E7281DFFF7B2FDA86A18B160
:1035600005F11800FFF7ACFDE86A012122698140EE
:103570001143216100EB800108EB8100291DFFF759
:10358000D7FDE86A2168C96A8842CDD30127CBE715
:1035900018000020600200202DE9F0472C4D002487
:1035A0002746286B38B1FFF7CFFD286B401E2863F4
:1035B000286B40B146E0502080F31188BFF34F8F55
:1035C000BFF36F8FFEE7A968224E0120D1B3A6F1A9
:1035D000B40980463068E8B1F068C46804F11800A6
:1035E000FFF76EFD201DFFF76BFDE06A2A6908FA00
:1035F00000F11143296100EB800109EB8100211DDD
:10360000FFF796FDE06A2968C96A8842E2D3C5F8E7
:103610001C80DFE70CB1FFF7ADFCAC6944B1464656
:10362000FFF756FF00B1EE61641EF9D10020A861DA
:10363000E86938B10849012738070860BFF34F8FA0
:10364000BFF36F8FFFF7A0FD3846BDE8F08700009D
:10365000180000201403002004ED00E0000000002A
:103660000000000001020304060708090000000032
:1036700001020304943600080000002078000000D6
:10368000FE2B00080C37000878000020D84200000C
:103690000E2C000800000000000000000024F400D0
:1036A0000100000010000000000000000000000009
:1036B000000000000000000000000000000000000A
:1036C00000000000000000000000000000000000FA
:1036D00000000000000000000000000000000000EA
:1036E00000000000000000000000000000000000DA
:1036F00000000000000000000000000000000000CA
:0C37000000000000AAAAAAAA0000000015
:040000050800018965
:00000001FF
